:100000000C942A000C945B270C9488270C94B52739
:100010000C94AA250C9447000C941A250C944700C4
:100020000C9447000C9447000C9447000C94470034
:100030000C9447000C9447000C9447000C94470024
:100040000C9447000C9447000C9447000C94470014
:100050000C94470011241FBECFE5D4E0DEBFCDBF16
:1000600011E0A0E6B0E0E4E3FEE502C005900D92E9
:10007000AA38B107D9F711E0AAE8B1E001C01D9292
:10008000A439B107E1F70E946B060C94182F0C9469
:100090000000EF92FF920F931F937B018C0120E0F1
:1000A00030E040E05FE40E94490388238CF0C801FF
:1000B000B70120E030E040E05FE40E94C1010E940F
:1000C000A9039B01AC01205030404040504806C07D
:1000D000C801B7010E94A9039B01AC01B901CA0183
:1000E0001F910F91FF90EF900895A0E0B0E0EBE733
:1000F000F0E00C94E12EDC012B01FA019C9192308E
:1001000008F439C1EB018881823008F433C194309E
:1001100069F4843009F02FC111969C91119789815F
:10012000981709F428C1A0E6B0E025C1843009F48D
:1001300021C18230A9F4923009F01DC19A01AD01AC
:1001400088E0EA010990AE01E90109929E0181501F
:10015000C1F7E201898111969C918923818308C1AD
:10016000923009F407C112962D903C901397EB0141
:100170008A819B811496AD90BD90CD90DC901797AD
:10018000EC80FD800E811F819101281B390BB90184
:1001900037FF04C066277727621B730B6032710537
:1001A0000CF061C0121613066CF537014801062EDB
:1001B00004C096948794779467940A94D2F721E0C8
:1001C00030E040E050E004C0220F331F441F551FB1
:1001D0006A95D2F721503040404050402E213F21B7
:1001E00040235123211531054105510521F021E01E
:1001F00030E040E050E079018A01E628F72808293C
:1002000019293CC0232BD1F1260E371E350146019A
:10021000062E04C096948794779467940A94D2F734
:1002200021E030E040E050E004C0220F331F441FC3
:10023000551F6A95D2F721503040404050402A2146
:100240003B214C215D21211531054105510521F04E
:1002500021E030E040E050E059016A01A628B728CB
:10026000C828D9280BC0821593052CF01C01AA249C
:10027000BB24650103C0EE24FF24870111969C91E5
:10028000D20111968C91981709F445C0992339F041
:10029000A80197012A193B094C095D0906C0A6016E
:1002A00095012E193F09400B510B57FD08C01182D3
:1002B0003382228224833583468357831DC081E0A5
:1002C00081833382228288279927DC01821B930B4A
:1002D000A40BB50B84839583A683B7830DC0220F2F
:1002E000331F441F551F24833583468357838281E0
:1002F000938101979383828324813581468157813D
:10030000DA01C9010197A109B1098F5F9F4FAF4F72
:10031000BF4328F30BC0918333822282EA0CFB1C7B
:100320000C1D1D1DE482F5820683178383E0808304
:10033000248135814681578157FF1AC0C901AA27F8
:1003400097FDA095BA2F81709070A070B0705695EF
:10035000479537952795822B932BA42BB52B848318
:100360009583A683B7838281938101969383828349
:10037000DF0101C0D201CD01CDB7DEB7E2E10C94BF
:10038000FD2EA0E2B0E0E7ECF1E00C94ED2E6983E5
:100390007A838B839C832D833E834F835887E9E048
:1003A000EE2EF12CEC0EFD1ECE010196B7010E943F
:1003B0009A058E010F5E1F4FCE010596B8010E946F
:1003C0009A058A8991E089278A8BC701B801AE0115
:1003D000475E5F4F0E9475000E94C504A096E6E04C
:1003E0000C94092FA0E2B0E0E8EFF1E00C94ED2EC0
:1003F00069837A838B839C832D833E834F835887C5
:10040000F9E0EF2EF12CEC0EFD1ECE010196B701A6
:100410000E949A058E010F5E1F4FCE010596B8010E
:100420000E949A05C701B801AE01475E5F4F0E9466
:1004300075000E94C504A096E6E00C94092FA0E286
:10044000B0E0E5E2F2E00C94E12E69837A838B83DD
:100450009C832D833E834F835887CE010196BE0136
:10046000675F7F4F0E949A05CE010596BE016F5EC1
:100470007F4F0E949A059985923088F08989823051
:10048000C8F0943019F4823051F404C0843029F457
:10049000923081F480E690E0C6C0923049F420E0CA
:1004A0009A858A89981321E02A87CE010996BBC0D4
:1004B000823049F420E09A858A89981321E02A8BBA
:1004C000CE014196B0C02D843E844F8458886D88FB
:1004D0007E888F88988CEE24FF248701AA24BB2471
:1004E000650140E050E060E070E0E0E0F0E0C10174
:1004F00081709070892BE9F0E60CF71C081D191D1E
:100500009A01AB012A0D3B1D4C1D5D1D80E090E062
:10051000A0E0B0E0E614F7040805190520F481E036
:1005200090E0A0E0B0E0BA01A901480F591F6A1F8E
:100530007B1FAA0CBB1CCC1CDD1C97FE08C081E0F5
:1005400090E0A0E0B0E0A82AB92ACA2ADB2A3196B6
:10055000E032F10549F0660C771C881C991C569412
:10056000479437942794C3CFFA85EA892B893C892D
:100570008B859C85280F391F2E5F3F4F17C0CA01FE
:1005800081709070892B61F016950795F794E79428
:1005900080E090E0A0E0B0E8E82AF92A0A2B1B2BC3
:1005A00076956795579547952F5F3F4F77FDE7CF36
:1005B0000CC0440F551F661F771F17FD4160EE0CDE
:1005C000FF1C001F111F21503040403090E05907A0
:1005D00090E0690790E4790760F32B8F3C8FDB0193
:1005E000CA018F779070A070B07080349105A1051A
:1005F000B10561F447FD0AC0E114F10401051105DC
:1006000029F0405C5F4F6F4F7F4F40781A8EFE1786
:1006100011F081E08A8F4D8F5E8F6F8F78A383E01A
:10062000898FCE0149960E94C504A096E2E10C9400
:10063000FD2EA8E1B0E0EFE1F3E00C94ED2E69832C
:100640007A838B839C832D833E834F83588789E0F5
:10065000E82EF12CEC0EFD1ECE010196B7010E9492
:100660009A058E010F5E1F4FCE010596B8010E94BC
:100670009A058985823040F08989823028F0C70147
:10068000B8010E94120601C08FEF6896E6E00C9454
:10069000092FA8E1B0E0EFE4F3E00C94ED2E6983BC
:1006A0007A838B839C832D833E834F83588789E095
:1006B000E82EF12CEC0EFD1ECE010196B7010E9432
:1006C0009A058E010F5E1F4FCE010596B8010E945C
:1006D0009A058985823040F08989823028F0C701E7
:1006E000B8010E94120601C08FEF6896E6E00C94F4
:1006F000092FA8E1B0E0EFE7F3E00C94ED2E698359
:100700007A838B839C832D833E834F83588789E034
:10071000E82EF12CEC0EFD1ECE010196B7010E94D1
:100720009A058E010F5E1F4FCE010596B8010E94FB
:100730009A058985823040F08989823028F0C70186
:10074000B8010E94120601C081E06896E6E00C94B0
:10075000092FACE0B0E0EFEAF3E00C94F12E6983EE
:100760007A838B839C83CE010196BE016B5F7F4FA2
:100770000E949A058D81823061F1823050F184307F
:1007800021F48E81882351F12EC02F81388537FDC9
:1007900020C06E812F3131051CF06623F9F023C093
:1007A0008EE190E0821B930B29853A854B855C8511
:1007B00004C056954795379527958A95D2F76623B5
:1007C000B1F050954095309521953F4F4F4F5F4F79
:1007D0000EC020E030E040E050E009C02FEF3FEFD6
:1007E0004FEF5FE704C020E030E040E050E8B9019F
:1007F000CA012C96E2E00C940D2FA8E0B0E0E3E0F3
:10080000F4E00C94E92E7B018C01611571058105E2
:10081000910519F482E0898360C083E089838EE1C9
:10082000C82ED12CDC82CB82ED82FE820F8318870A
:10083000C801B7010E947604FC013197F7FF3BC065
:10084000222733272E1B3F0B57016801022E04C0BD
:10085000D694C794B794A7940A94D2F740E050E096
:1008600060E070E081E090E0A0E0B0E004C0880FBC
:10087000991FAA1FBB1F2A95D2F70197A109B10999
:100880008E219F21A023B1230097A105B10521F05E
:1008900041E050E060E070E04A295B296C297D2945
:1008A0004D835E836F8378878EE190E08E1B9F0B74
:1008B0009C838B8312C0309781F00E2E04C0EE0C07
:1008C000FF1C001F111F0A94D2F7ED82FE820F83D6
:1008D0001887CE1ADF0ADC82CB821A82CE010196FB
:1008E0000E94C5042896EAE00C94052FEF92FF922F
:1008F0000F931F937B018C0180E0E81680E0F806DF
:1009000081E0080780E0180788F48FEFE816F1040B
:100910000105110531F028F088E090E0A0E0B0E09A
:1009200017C080E090E0A0E0B0E012C080E0E816E0
:1009300080E0F80680E0080781E0180728F088E1E9
:1009400090E0A0E0B0E004C080E190E0A0E0B0E082
:1009500020E230E040E050E0281B390B4A0B5B0BF3
:1009600004C016950795F794E7948A95D2F7F70196
:10097000E859FF4F8081281B310941095109C901FC
:100980001F910F91FF90EF900895DF92EF92FF92E9
:100990000F931F93FC01E480F58006811781D180BD
:1009A0008081823048F480E090E0A0E1B0E0E82A65
:1009B000F92A0A2B1B2BA5C0843009F49FC0823072
:1009C00021F4EE24FF24870105C0E114F1040105A0
:1009D000110519F4E0E0F0E096C0628173819FEFA9
:1009E000623879070CF05BC022E83FEF261B370B1B
:1009F0002A3131052CF020E030E040E050E02AC000
:100A0000B801A701022E04C07695679557954795C2
:100A10000A94D2F781E090E0A0E0B0E004C0880F33
:100A2000991FAA1FBB1F2A95D2F70197A109B109E7
:100A30008E219F21A023B1230097A105B10521F0AC
:100A400081E090E0A0E0B0E09A01AB01282B392BC7
:100A50004A2B5B2BDA01C9018F779070A070B070C0
:100A600080349105A105B10539F427FF09C0205C48
:100A70003F4F4F4F5F4F04C0215C3F4F4F4F5F4F81
:100A8000E0E0F0E02030A0E03A07A0E04A07A0E470
:100A90005A0710F0E1E0F0E079018A0127C06038E0
:100AA000710564F5FB01E158FF4FD801C7018F774D
:100AB0009070A070B07080349105A105B10539F433
:100AC000E7FE0DC080E490E0A0E0B0E004C08FE35A
:100AD00090E0A0E0B0E0E80EF91E0A1F1B1F17FF10
:100AE00005C016950795F794E794319687E016951B
:100AF0000795F794E7948A95D1F705C0EE24FF2473
:100B00008701EFEFF0E06E2F679566276795902FCE
:100B10009F77D794DD24D7948E2F8695492F462B27
:100B2000582F5D29B701CA011F910F91FF90EF90D7
:100B3000DF900895FC01DB01408151812281622F09
:100B40006F7770E0221F2227221F9381892F880F41
:100B5000822B282F30E0991F9927991F11969C937B
:100B6000119721153105A9F541155105610571054B
:100B700011F482E037C082E89FEF13969C938E9326
:100B800012979A01AB0167E0220F331F441F551FD4
:100B90006A95D1F783E08C930DC0220F331F441F59
:100BA000551F12968D919C911397019713969C93C4
:100BB0008E931297203080E0380780E0480780E469
:100BC000580758F314962D933D934D935C931797C4
:100BD00008952F3F310579F44115510561057105DF
:100BE00019F484E08C93089564FF03C081E08C9332
:100BF00012C01C9210C02F57304013963C932E9376
:100C0000129783E08C9387E0440F551F661F771F70
:100C10008A95D1F7706414964D935D936D937C9390
:100C2000179708951F93DC01FB019C91923008F403
:100C300047C08081823008F443C0943051F411964B
:100C40001C91843099F58181682F70E0611B7109D6
:100C50003FC0843021F0923031F48230B9F181818B
:100C6000882389F12DC011961C9111978230F1F0E3
:100C700081811817D9F412962D913C911397828196
:100C800093818217930794F028173907BCF01496C4
:100C90008D919D910D90BC91A02D2481358146812F
:100CA0005781281739074A075B0718F4112341F0C9
:100CB0000AC082179307A407B50740F4112319F05F
:100CC00061E070E005C06FEF7FEF02C060E070E0B0
:100CD000CB011F910895DF93CF93CDB7DEB72F9748
:100CE0000FB6F894DEBF0FBECDBF1F860E94BC2D8D
:100CF0001F8678C08F850E94E62D80E090E0AAE7ED
:100D0000B4E48B879C87AD87BE876B857C858D859A
:100D10009E8520E030E04AEF54E40E941F02DC018F
:100D2000CB018F839887A987BA876F81788589855A
:100D30009A8520E030E040E85FE30E947903882351
:100D40002CF481E090E09E838D833FC06F81788595
:100D500089859A8520E03FEF4FE757E40E94190309
:100D600018164CF56B857C858D859E8520E030E0DE
:100D700040E251E40E941F02DC01CB01BC01CD0125
:100D80000E944900DC01CB019E838D830FC088EC5B
:100D900090E09C838B838B819C810197F1F79C83EE
:100DA0008B838D819E8101979E838D838D819E8112
:100DB000009769F714C06F81788589859A850E94AC
:100DC0004900DC01CB019E838D838D819E819A83B6
:100DD000898389819A810197F1F79A8389838F8525
:100DE0008F5F8F878F858A3008F484CF80E090E012
:100DF0002F960FB6F894DEBF0FBECDBFCF91DF9117
:100E00000895DF93CF93CDB7DEB783E065E041E08F
:100E10000E94E22783E064E041E00E94E22780E252
:100E20009EE40E94EA23CF91DF910895DF93CF9350
:100E3000CDB7DEB728970FB6F894DEBF0FBECDBF93
:100E40008D836E838E81992787FD9095865A9F4F5B
:100E5000AA2797FDA095BA2F89839A83AB83BC8379
:100E600089819A81AB81BC8128EE33E040E050E07B
:100E7000BC01CD010E94A02EDC01CB0124EB30E0AF
:100E800040E050E0BC01CD010E94BF2EDA01C90153
:100E900089839A83AB83BC838D81282F30E0388788
:100EA0002F838F819885009731F02F8138852130ED
:100EB000310559F013C089819A819C0128513C4F1A
:100EC00080E0B9010E94652409C089819A819C0152
:100ED00028513C4F81E0B9010E94652428960FB645
:100EE000F894DEBF0FBECDBFCF91DF910895DF93A1
:100EF000CF93CDB7DEB780E067E04FEF0E94E227E7
:100F000080E066E04FEF0E94E22780E065E04FEF6F
:100F10000E94E22780E064E04FEF0E94E22780E039
:100F200067E040E00E94F12880E066E040E00E9437
:100F3000F12880E065E040E00E94F12880E064E074
:100F400040E00E94F128CF91DF910895DF93CF9385
:100F5000CDB7DEB780E067E040E00E94F12880E096
:100F600066E040E00E94F12880E065E040E00E94F9
:100F7000F12880E064E040E00E94F128CF91DF9109
:100F800008950F931F93DF93CF93CDB7DEB7C95565
:100F9000D1400FB6F894DEBF0FBECDBFFE01EB5AB5
:100FA000FE4F8083FE01EA5AFE4F6083FE01E95A3C
:100FB000FE4F4083FE01E85AFE4F31832083FE013D
:100FC000EF5AFE4F1082118212821382FE01EB5AF9
:100FD000FE4F8081813009F019C7FE01EA5AFE4FA9
:100FE0008081813009F085C3FE01EF5AFE4F1082E7
:100FF00011821282138256C380E067E041E00E94B2
:10100000F12880E066E040E00E94F12880E065E0A1
:1010100040E00E94F12880E064E040E00E94F12876
:10102000FE01E95AFE4F8081882F90E0A0E0B0E0F9
:10103000BC01CD010E94FD03DC01CB01FE01E35B9D
:10104000FE4F80839183A283B3838E01075B1E4F83
:10105000FE01E35BFE4F608171818281938120E01C
:1010600030E04AE753E40E941F02DC01CB01F801A3
:1010700080839183A283B383FE01E75BFE4F60818F
:1010800071818281938120E030E040E85FE30E943B
:101090007903882344F4FE01E95BFE4F81E090E090
:1010A0009183808364C0FE01E75BFE4F60817181A4
:1010B0008281938120E03FEF4FE757E40E941903BC
:1010C00018160CF043C0FE01E35BFE4F6081718196
:1010D0008281938120E030E040E251E40E941F02CF
:1010E000DC01CB018E01095B1E4FBC01CD010E94CA
:1010F0004900DC01CB01F801918380831FC0FE0110
:10110000EB5BFE4F89E190E091838083FE01EB5B16
:10111000FE4F808191810197F1F7FE01EB5BFE4F5D
:1011200091838083DE01A95BBE4FFE01E95BFE4F28
:1011300080819181019711969C938E93FE01E95BCA
:10114000FE4F808191810097D1F627C08E01095B07
:101150001E4FFE01E75BFE4F6081718182819381AA
:101160000E944900DC01CB01F80191838083DE01FC
:10117000AD5BBE4FFE01E95BFE4F808191818D9397
:101180009C93FE01ED5BFE4F808191810197F1F709
:10119000FE01ED5BFE4F9183808380E067E040E0DD
:1011A0000E94F12880E066E041E00E94F12880E0A2
:1011B00065E040E00E94F12880E064E040E00E94A9
:1011C000F128FE01E95AFE4F8081882F90E0A0E0CF
:1011D000B0E0BC01CD010E94FD03DC01CB01FE01AA
:1011E000E15CFE4F80839183A283B3838E01055C13
:1011F0001E4FFE01E15CFE4F60817181828193810F
:1012000020E030E04AE753E40E941F02DC01CB01FA
:10121000F80180839183A283B383FE01E55CFE4FD6
:10122000608171818281938120E030E040E85FE35A
:101230000E947903882344F4FE01E75CFE4F81E0BD
:1012400090E09183808364C0FE01E55CFE4F608185
:1012500071818281938120E03FEF4FE757E40E9444
:10126000190318160CF043C0FE01E15CFE4F6081CB
:1012700071818281938120E030E040E251E40E945C
:101280001F02DC01CB018E01075C1E4FBC01CD01AA
:101290000E944900DC01CB01F801918380831FC0CB
:1012A000FE01E95CFE4F89E190E091838083FE01BD
:1012B000E95CFE4F808191810197F1F7FE01E95CC5
:1012C000FE4F91838083DE01A75CBE4FFE01E75C89
:1012D000FE4F80819181019711969C938E93FE0120
:1012E000E75CFE4F808191810097D1F627C08E0187
:1012F000075C1E4FFE01E55CFE4F608171818281BB
:1013000093810E944900DC01CB01F8019183808325
:10131000DE01AB5CBE4FFE01E75CFE4F8081918138
:101320008D939C93FE01EB5CFE4F80819181019730
:10133000F1F7FE01EB5CFE4F9183808380E067E074
:1013400040E00E94F12880E066E040E00E94F12841
:1013500080E065E041E00E94F12880E064E040E048
:101360000E94F128FE01E95AFE4F8081882F90E00B
:10137000A0E0B0E0BC01CD010E94FD03DC01CB0187
:10138000FE01EF5CFE4F80839183A283B3838E01C5
:10139000035D1E4FFE01EF5CFE4F60817181828113
:1013A000938120E030E04AE753E40E941F02DC0111
:1013B000CB01F80180839183A283B383FE01E35DB7
:1013C000FE4F608171818281938120E030E040E8AE
:1013D0005FE30E947903882344F4FE01E55DFE4F3C
:1013E00081E090E09183808364C0FE01E35DFE4F65
:1013F000608171818281938120E03FEF4FE757E464
:101400000E94190318160CF043C0FE01EF5CFE4F5A
:10141000608171818281938120E030E040E251E47B
:101420000E941F02DC01CB018E01055D1E4FBC0135
:10143000CD010E944900DC01CB01F801918380833A
:101440001FC0FE01E75DFE4F89E190E0918380833C
:10145000FE01E75DFE4F808191810197F1F7FE016A
:10146000E75DFE4F91838083DE01A55DBE4FFE01E7
:10147000E55DFE4F80819181019711969C938E933B
:10148000FE01E55DFE4F808191810097D1F627C076
:101490008E01055D1E4FFE01E35DFE4F608171818F
:1014A000828193810E944900DC01CB01F801918384
:1014B0008083DE01A95DBE4FFE01E55DFE4F8081A8
:1014C00091818D939C93FE01E95DFE4F8081918116
:1014D0000197F1F7FE01E95DFE4F9183808380E083
:1014E00067E040E00E94F12880E066E040E00E9472
:1014F000F12880E065E040E00E94F12880E064E0AF
:1015000041E00E94F128FE01E95AFE4F8081882FB8
:1015100090E0A0E0B0E0BC01CD010E94FD03DC0141
:10152000CB01FE01ED5DFE4F80839183A283B383E7
:101530008E01015E1E4FFE01ED5DFE4F60817181E7
:101540008281938120E030E04AE753E40E941F0249
:10155000DC01CB01F80180839183A283B383FE0178
:10156000E15EFE4F608171818281938120E030E0F5
:1015700040E85FE30E947903882344F4FE01E35EC0
:10158000FE4F81E090E09183808364C0FE01E15EC4
:10159000FE4F608171818281938120E03FEF4FE7B0
:1015A00057E40E94190318160CF043C0FE01ED5DCC
:1015B000FE4F608171818281938120E030E040E2C2
:1015C00051E40E941F02DC01CB018E01035E1E4F1D
:1015D000BC01CD010E944900DC01CB01F8019183DF
:1015E00080831FC0FE01E55EFE4F89E190E091839C
:1015F0008083FE01E55EFE4F808191810197F1F7C6
:10160000FE01E55EFE4F91838083DE01A35EBE4F47
:10161000FE01E35EFE4F80819181019711969C93BC
:101620008E93FE01E35EFE4F808191810097D1F69B
:1016300027C08E01035E1E4FFE01E15EFE4F6081FA
:101640007181828193810E944900DC01CB01F80104
:1016500091838083DE01A75EBE4FFE01E35EFE4FF5
:10166000808191818D939C93FE01E75EFE4F808186
:1016700091810197F1F7FE01E75EFE4F9183808330
:101680009E012F5A3E4FFE01EF5AFE4F80819181FD
:10169000A281B3810196A11DB11DF90180839183BF
:1016A000A283B383FE01E85AFE4F80819181CC0171
:1016B000A0E0B0E0BA2FA92F982F882724EB30E0C4
:1016C00040E050E0BC01CD010E94BF2EDA01C9010B
:1016D0009C01AD01FE01EF5AFE4F80819181A281F4
:1016E000B38182179307A407B50708F485CC0C943F
:1016F000831BFE01EA5AFE4F8081882311F00C946F
:10170000831BFE01EF5AFE4F108211821282138258
:1017100056C380E067E040E00E94F12880E066E088
:1017200040E00E94F12880E065E040E00E94F1285E
:1017300080E064E041E00E94F128FE01E95AFE4F9A
:101740008081882F90E0A0E0B0E0BC01CD010E9434
:10175000FD03DC01CB01FE01EB5EFE4F8083918334
:10176000A283B3838E010F5E1E4FFE01EB5EFE4F20
:10177000608171818281938120E030E04AE753E407
:101780000E941F02DC01CB01F80180839183A283B8
:10179000B383FE01EF5EFE4F608171818281938190
:1017A00020E030E040E85FE30E947903882344F4BE
:1017B000FE01E15FFE4F81E090E09183808364C091
:1017C000FE01EF5EFE4F608171818281938120E096
:1017D0003FEF4FE757E40E94190318160CF043C07F
:1017E000FE01EB5EFE4F608171818281938120E07A
:1017F00030E040E251E40E941F02DC01CB018E0187
:10180000015F1E4FBC01CD010E944900DC01CB01EC
:10181000F801918380831FC0FE01E35FFE4F89E1E1
:1018200090E091838083FE01E35FFE4F8081918190
:101830000197F1F7FE01E35FFE4F91838083DE01A4
:10184000A15FBE4FFE01E15FFE4F80819181019754
:1018500011969C938E93FE01E15FFE4F80819181F2
:101860000097D1F627C08E01015F1E4FFE01EF5E8B
:10187000FE4F60817181828193810E944900DC0169
:10188000CB01F80191838083DE01A55FBE4FFE018D
:10189000E15FFE4F808191818D939C93FE01E55F16
:1018A000FE4F808191810197F1F7FE01E55FFE4FC8
:1018B0009183808380E067E040E00E94F12880E02F
:1018C00066E040E00E94F12880E065E041E00E948F
:1018D000F12880E064E040E00E94F128FE01E95A2E
:1018E000FE4F8081882F90E0A0E0B0E0BC01CD01E8
:1018F0000E94FD03DC01CB01FE01E95FFE4F808306
:101900009183A283B3838E010D5F1E4FFE01E95FB9
:10191000FE4F608171818281938120E030E04AE74F
:1019200053E40E941F02DC01CB01F8018083918304
:10193000A283B383FE01ED5FFE4F608171818281DE
:10194000938120E030E040E85FE30E947903882340
:1019500044F4FE01EF5FFE4F81E090E091838083CD
:1019600064C0FE01ED5FFE4F6081718182819381D1
:1019700020E03FEF4FE757E40E94190318160CF0E0
:1019800043C0FE01E95FFE4F6081718182819381D6
:1019900020E030E040E251E40E941F02DC01CB0174
:1019A0008E010F5F1E4FBC01CD010E944900DC017A
:1019B000CB01F801918380831FC0FE01E150FF4FEE
:1019C00089E190E091838083FE01E150FF4F8081A7
:1019D00091810197F1F7FE01E150FF4F91838083E0
:1019E000DE01AF5FBE4FFE01EF5FFE4F8081918150
:1019F000019711969C938E93FE01EF5FFE4F8081BD
:101A000091810097D1F627C08E010F5F1E4FFE0116
:101A1000ED5FFE4F60817181828193810E94490058
:101A2000DC01CB01F80191838083DE01A350BF4F1D
:101A3000FE01EF5FFE4F808191818D939C93FE01AB
:101A4000E350FF4F808191810197F1F7FE01E35050
:101A5000FF4F9183808380E067E040E00E94F1289F
:101A600080E066E041E00E94F12880E065E040E02F
:101A70000E94F12880E064E040E00E94F128FE012D
:101A8000E95AFE4F8081882F90E0A0E0B0E0BC01D1
:101A9000CD010E94FD03DC01CB01FE01E750FF4FA9
:101AA00080839183A283B3838E010B501F4FFE016D
:101AB000E750FF4F608171818281938120E030E0A7
:101AC0004AE753E40E941F02DC01CB01F801808346
:101AD0009183A283B383FE01EB50FF4F608171813C
:101AE0008281938120E030E040E85FE30E94790347
:101AF000882344F4FE01ED50FF4F81E090E0918394
:101B0000808364C0FE01EB50FF4F60817181828150
:101B1000938120E03FEF4FE757E40E941903181626
:101B20000CF043C0FE01E750FF4F6081718182815C
:101B3000938120E030E040E251E40E941F02DC018A
:101B4000CB018E010D501F4FBC01CD010E944900F9
:101B5000DC01CB01F801918380831FC0FE01EF50AF
:101B6000FF4F89E190E091838083FE01EF50FF4FAA
:101B7000808191810197F1F7FE01EF50FF4F918332
:101B80008083DE01AD50BF4FFE01ED50FF4F8081DD
:101B90009181019711969C938E93FE01ED50FF4F1A
:101BA000808191810097D1F627C08E010D501F4F83
:101BB000FE01EB50FF4F60817181828193810E9411
:101BC0004900DC01CB01F80191838083DE01A15142
:101BD000BF4FFE01ED50FF4F808191818D939C930B
:101BE000FE01E151FF4F808191810197F1F7FE01E4
:101BF000E151FF4F9183808380E067E041E00E94E4
:101C0000F12880E066E040E00E94F12880E065E095
:101C100040E00E94F12880E064E040E00E94F1286A
:101C2000FE01E95AFE4F8081882F90E0A0E0B0E0ED
:101C3000BC01CD010E94FD03DC01CB01FE01E55199
:101C4000FF4F80839183A283B3838E0109511F4F7D
:101C5000FE01E551FF4F608171818281938120E017
:101C600030E04AE753E40E941F02DC01CB01F80197
:101C700080839183A283B383FE01E951FF4F60818A
:101C800071818281938120E030E040E85FE30E942F
:101C90007903882344F4FE01EB51FF4F81E090E08B
:101CA0009183808364C0FE01E951FF4F608171819F
:101CB0008281938120E03FEF4FE757E40E941903B0
:101CC00018160CF043C0FE01E551FF4F6081718191
:101CD0008281938120E030E040E251E40E941F02C3
:101CE000DC01CB018E010B511F4FBC01CD010E94C5
:101CF0004900DC01CB01F801918380831FC0FE0104
:101D0000ED51FF4F89E190E091838083FE01ED5119
:101D1000FF4F808191810197F1F7FE01ED51FF4F57
:101D200091838083DE01AB51BF4FFE01EB51FF4F2A
:101D300080819181019711969C938E93FE01EB51C6
:101D4000FF4F808191810097D1F627C08E010B5102
:101D50001F4FFE01E951FF4F6081718182819381A4
:101D60000E944900DC01CB01F80191838083DE01F0
:101D7000AF51BF4FFE01EB51FF4F808191818D9399
:101D80009C93FE01EF51FF4F808191810197F1F704
:101D9000FE01EF51FF4F918380839E012F5A3E4FEA
:101DA000FE01EF5AFE4F80819181A281B38101969D
:101DB000A11DB11DF90180839183A283B383FE012C
:101DC000E85AFE4F80819181CC01A0E0B0E0BA2FAB
:101DD000A92F982F882724EB30E040E050E0BC0189
:101DE000CD010E94BF2EDA01C9019C01AD01FE01A7
:101DF000EF5AFE4F80819181A281B38182179307B0
:101E0000A407B50708F485CC0C94831BFE01EB5A9C
:101E1000FE4F8081882311F00C94831BFE01EA5A47
:101E2000FE4F8081813009F0CDC6FE01EF5AFE4F92
:101E300010821182128213829AC680E067E041E02C
:101E40000E94F12880E066E040E00E94F12880E0F6
:101E500065E040E00E94F12880E064E040E00E94FC
:101E6000F128FE01E95AFE4F8081882F90E0A0E022
:101E7000B0E0BC01CD010E94FD03DC01CB01FE01FD
:101E8000E352FF4F80839183A283B3838E01075275
:101E90001F4FFE01E352FF4F608171818281938168
:101EA00020E030E04AE753E40E941F02DC01CB014E
:101EB000F80180839183A283B383FE01E752FF4F31
:101EC000608171818281938120E030E040E85FE3AE
:101ED0000E947903882344F4FE01E952FF4F81E018
:101EE00090E09183808364C0FE01E752FF4F6081E0
:101EF00071818281938120E03FEF4FE757E40E9498
:101F0000190318160CF043C0FE01E352FF4F608125
:101F100071818281938120E030E040E251E40E94AF
:101F20001F02DC01CB018E0109521F4FBC01CD0104
:101F30000E944900DC01CB01F801918380831FC01E
:101F4000FE01EB52FF4F89E190E091838083FE0117
:101F5000EB52FF4F808191810197F1F7FE01EB5227
:101F6000FF4F91838083DE01A952BF4FFE01E952EA
:101F7000FF4F80819181019711969C938E93FE0172
:101F8000E952FF4F808191810097D1F627C08E01E1
:101F900009521F4FFE01E752FF4F6081718182811C
:101FA00093810E944900DC01CB01F8019183808379
:101FB000DE01AD52BF4FFE01E952FF4F808191819A
:101FC0008D939C93FE01ED52FF4F8081918101978B
:101FD000F1F7FE01ED52FF4F9183808380E067E0CF
:101FE00041E00E94F12880E066E041E00E94F12893
:101FF00080E065E040E00E94F12880E064E040E09D
:102000000E94F128FE01E95AFE4F8081882F90E05E
:10201000A0E0B0E0BC01CD010E94FD03DC01CB01DA
:10202000FE01E153FF4F80839183A283B3838E012E
:1020300005531F4FFE01E153FF4F60817181828183
:10204000938120E030E04AE753E40E941F02DC0164
:10205000CB01F80180839183A283B383FE01E55312
:10206000FF4F608171818281938120E030E040E800
:102070005FE30E947903882344F4FE01E753FF4F96
:1020800081E090E09183808364C0FE01E553FF4FBF
:10209000608171818281938120E03FEF4FE757E4B7
:1020A0000E94190318160CF043C0FE01E153FF4FC4
:1020B000608171818281938120E030E040E251E4CF
:1020C0000E941F02DC01CB018E0107531F4FBC0190
:1020D000CD010E944900DC01CB01F801918380838E
:1020E0001FC0FE01E953FF4F89E190E09183808397
:1020F000FE01E953FF4F808191810197F1F7FE01C5
:10210000E953FF4F91838083DE01A753BF4FFE0148
:10211000E753FF4F80819181019711969C938E9395
:10212000FE01E753FF4F808191810097D1F627C0D0
:102130008E0107531F4FFE01E553FF4F60817181F0
:10214000828193810E944900DC01CB01F8019183D7
:102150008083DE01AB53BF4FFE01E753FF4F808109
:1021600091818D939C93FE01EB53FF4F8081918170
:102170000197F1F7FE01EB53FF4F9183808380E0DD
:1021800067E040E00E94F12880E066E041E00E94C4
:10219000F12880E065E040E00E94F12880E064E002
:1021A00040E00E94F128FE01E95AFE4F8081882F0D
:1021B00090E0A0E0B0E0BC01CD010E94FD03DC0195
:1021C000CB01FE01EF53FF4F80839183A283B38342
:1021D0008E0103541F4FFE01EF53FF4F6081718149
:1021E0008281938120E030E04AE753E40E941F029D
:1021F000DC01CB01F80180839183A283B383FE01CC
:10220000E354FF4F608171818281938120E030E04F
:1022100040E85FE30E947903882344F4FE01E5541B
:10222000FF4F81E090E09183808364C0FE01E3541E
:10223000FF4F608171818281938120E03FEF4FE702
:1022400057E40E94190318160CF043C0FE01EF5327
:10225000FF4F608171818281938120E030E040E214
:1022600051E40E941F02DC01CB018E0105541F4F77
:10227000BC01CD010E944900DC01CB01F801918332
:1022800080831FC0FE01E754FF4F89E190E09183F6
:102290008083FE01E754FF4F808191810197F1F720
:1022A000FE01E754FF4F91838083DE01A554BF4FA9
:1022B000FE01E554FF4F80819181019711969C9317
:1022C0008E93FE01E554FF4F808191810097D1F6F6
:1022D00027C08E0105541F4FFE01E354FF4F60815C
:1022E0007181828193810E944900DC01CB01F80158
:1022F00091838083DE01A954BF4FFE01E554FF4F57
:10230000808191818D939C93FE01E954FF4F8081E0
:1023100091810197F1F7FE01E954FF4F918380838A
:1023200080E067E040E00E94F12880E066E041E064
:102330000E94F12880E065E041E00E94F12880E001
:1023400064E040E00E94F128FE01E95AFE4F8081DE
:10235000882F90E0A0E0B0E0BC01CD010E94FD0319
:10236000DC01CB01FE01ED54FF4F80839183A283FA
:10237000B3838E0101551F4FFE01ED54FF4F608165
:1023800071818281938120E030E04AE753E40E942A
:102390001F02DC01CB01F80180839183A283B38308
:1023A000FE01E155FF4F608171818281938120E0C0
:1023B00030E040E85FE30E947903882344F4FE01A3
:1023C000E355FF4F81E090E09183808364C0FE017C
:1023D000E155FF4F608171818281938120E03FEF61
:1023E0004FE757E40E94190318160CF043C0FE0192
:1023F000ED54FF4F608171818281938120E030E054
:1024000040E251E40E941F02DC01CB018E01035522
:102410001F4FBC01CD010E944900DC01CB01F80136
:10242000918380831FC0FE01E555FF4F89E190E055
:1024300091838083FE01E555FF4F80819181019753
:10244000F1F7FE01E555FF4F91838083DE01A3552F
:10245000BF4FFE01E355FF4F808191810197119697
:102460009C938E93FE01E355FF4F808191810097ED
:10247000D1F627C08E0103551F4FFE01E155FF4FD6
:1024800060817181828193810E944900DC01CB01CE
:10249000F80191838083DE01A755BF4FFE01E3550C
:1024A000FF4F808191818D939C93FE01E755FF4FF3
:1024B000808191810197F1F7FE01E755FF4F9183EC
:1024C000808380E067E040E00E94F12880E066E0E1
:1024D00040E00E94F12880E065E041E00E94F128A0
:1024E00080E064E040E00E94F128FE01E95AFE4FDE
:1024F0008081882F90E0A0E0B0E0BC01CD010E9477
:10250000FD03DC01CB01FE01EB55FF4F808391837E
:10251000A283B3838E010F551F4FFE01EB55FF4F72
:10252000608171818281938120E030E04AE753E449
:102530000E941F02DC01CB01F80180839183A283FA
:10254000B383FE01EF55FF4F6081718182819381DA
:1025500020E030E040E85FE30E947903882344F400
:10256000FE01E156FF4F81E090E09183808364C0DB
:10257000FE01EF55FF4F608171818281938120E0E0
:102580003FEF4FE757E40E94190318160CF043C0C1
:10259000FE01EB55FF4F608171818281938120E0C4
:1025A00030E040E251E40E941F02DC01CB018E01C9
:1025B00001561F4FBC01CD010E944900DC01CB0137
:1025C000F801918380831FC0FE01E356FF4F89E12C
:1025D00090E091838083FE01E356FF4F80819181DB
:1025E0000197F1F7FE01E356FF4F91838083DE01EF
:1025F000A156BF4FFE01E156FF4F808191810197A7
:1026000011969C938E93FE01E156FF4F808191813C
:102610000097D1F627C08E0101561F4FFE01EF55DE
:10262000FF4F60817181828193810E944900DC01AA
:10263000CB01F80191838083DE01A556BF4FFE01D7
:10264000E156FF4F808191818D939C93FE01E55669
:10265000FF4F808191810197F1F7FE01E556FF4F11
:102660009183808380E067E040E00E94F12880E071
:1026700066E040E00E94F12880E065E041E00E94D1
:10268000F12880E064E041E00E94F128FE01E95A6F
:10269000FE4F8081882F90E0A0E0B0E0BC01CD012A
:1026A0000E94FD03DC01CB01FE01E956FF4F808350
:1026B0009183A283B3838E010D561F4FFE01E9560D
:1026C000FF4F608171818281938120E030E04AE791
:1026D00053E40E941F02DC01CB01F8018083918347
:1026E000A283B383FE01ED56FF4F60817181828129
:1026F000938120E030E040E85FE30E947903882383
:1027000044F4FE01EF56FF4F81E090E09183808317
:1027100064C0FE01ED56FF4F60817181828193811B
:1027200020E03FEF4FE757E40E94190318160CF022
:1027300043C0FE01E956FF4F608171818281938120
:1027400020E030E040E251E40E941F02DC01CB01B6
:102750008E010F561F4FBC01CD010E944900DC01C4
:10276000CB01F801918380831FC0FE01E157FF4F29
:1027700089E190E091838083FE01E157FF4F8081E2
:1027800091810197F1F7FE01E157FF4F918380831B
:10279000DE01AF56BF4FFE01EF56FF4F80819181A2
:1027A000019711969C938E93FE01EF56FF4F808107
:1027B00091810097D1F627C08E010F561F4FFE0161
:1027C000ED56FF4F60817181828193810E944900A3
:1027D000DC01CB01F80191838083DE01A357BF4F59
:1027E000FE01EF56FF4F808191818D939C93FE01F6
:1027F000E357FF4F808191810197F1F7FE01E35785
:10280000FF4F9183808380E067E040E00E94F128E1
:1028100080E066E040E00E94F12880E065E040E072
:102820000E94F12880E064E041E00E94F128FE016E
:10283000E95AFE4F8081882F90E0A0E0B0E0BC0113
:10284000CD010E94FD03DC01CB01FE01E757FF4FE4
:1028500080839183A283B3838E010B571F4FFE01A8
:10286000E757FF4F608171818281938120E030E0E2
:102870004AE753E40E941F02DC01CB01F801808388
:102880009183A283B383FE01EB57FF4F6081718177
:102890008281938120E030E040E85FE30E94790389
:1028A000882344F4FE01ED57FF4F81E090E09183CF
:1028B000808364C0FE01EB57FF4F6081718182818C
:1028C000938120E03FEF4FE757E40E941903181669
:1028D0000CF043C0FE01E757FF4F60817181828198
:1028E000938120E030E040E251E40E941F02DC01CD
:1028F000CB018E010D571F4FBC01CD010E94490035
:10290000DC01CB01F801918380831FC0FE01EF57EA
:10291000FF4F89E190E091838083FE01EF57FF4FE5
:10292000808191810197F1F7FE01EF57FF4F91836D
:102930008083DE01AD57BF4FFE01ED57FF4F808111
:102940009181019711969C938E93FE01ED57FF4F55
:10295000808191810097D1F627C08E010D571F4FBE
:10296000FE01EB57FF4F60817181828193810E944C
:102970004900DC01CB01F80191838083DE01A1587D
:10298000BF4FFE01ED57FF4F808191818D939C9346
:10299000FE01E158FF4F808191810197F1F7FE011F
:1029A000E158FF4F9183808380E067E041E00E941F
:1029B000F12880E066E040E00E94F12880E065E0D8
:1029C00040E00E94F12880E064E041E00E94F128AC
:1029D000FE01E95AFE4F8081882F90E0A0E0B0E030
:1029E000BC01CD010E94FD03DC01CB01FE01E558D5
:1029F000FF4F80839183A283B3838E0109581F4FB9
:102A0000FE01E558FF4F608171818281938120E052
:102A100030E04AE753E40E941F02DC01CB01F801D9
:102A200080839183A283B383FE01E958FF4F6081C5
:102A300071818281938120E030E040E85FE30E9471
:102A40007903882344F4FE01EB58FF4F81E090E0C6
:102A50009183808364C0FE01E958FF4F60817181DA
:102A60008281938120E03FEF4FE757E40E941903F2
:102A700018160CF043C0FE01E558FF4F60817181CC
:102A80008281938120E030E040E251E40E941F0205
:102A9000DC01CB018E010B581F4FBC01CD010E9400
:102AA0004900DC01CB01F801918380831FC0FE0146
:102AB000ED58FF4F89E190E091838083FE01ED584E
:102AC000FF4F808191810197F1F7FE01ED58FF4F93
:102AD00091838083DE01AB58BF4FFE01EB58FF4F5F
:102AE00080819181019711969C938E93FE01EB5802
:102AF000FF4F808191810097D1F627C08E010B583E
:102B00001F4FFE01E958FF4F6081718182819381DF
:102B10000E944900DC01CB01F80191838083DE0132
:102B2000AF58BF4FFE01EB58FF4F808191818D93CD
:102B30009C93FE01EF58FF4F808191810197F1F73F
:102B4000FE01EF58FF4F918380839E012F5A3E4F25
:102B5000FE01EF5AFE4F80819181A281B3810196DF
:102B6000A11DB11DF90180839183A283B383FE016E
:102B7000E85AFE4F80819181CC01A0E0B0E0072EA1
:102B800079E0880F991FAA1FBB1F7A95D1F7702D86
:102B900028E631E040E050E0BC01CD010E94BF2EAC
:102BA000DA01C9019C01AD01FE01EF5AFE4F80819F
:102BB0009181A281B38182179307A407B50708F416
:102BC0003CC9A1C5FE01EA5AFE4F8081882309F065
:102BD0009AC5FE01EF5AFE4F1082118212821382B3
:102BE00068C580E067E041E00E94F12880E066E08F
:102BF00040E00E94F12880E065E040E00E94F1287A
:102C000080E064E041E00E94F128FE01E95AFE4FB5
:102C10008081882F90E0A0E0B0E0BC01CD010E944F
:102C2000FD03DC01CB01FE01E359FF4F808391835B
:102C3000A283B3838E0107591F4FFE01E359FF4F53
:102C4000608171818281938120E030E04AE753E422
:102C50000E941F02DC01CB01F80180839183A283D3
:102C6000B383FE01E759FF4F6081718182819381B7
:102C700020E030E040E85FE30E947903882344F4D9
:102C8000FE01E959FF4F81E090E09183808364C0A9
:102C9000FE01E759FF4F608171818281938120E0BD
:102CA0003FEF4FE757E40E94190318160CF043C09A
:102CB000FE01E359FF4F608171818281938120E0A1
:102CC00030E040E251E40E941F02DC01CB018E01A2
:102CD00009591F4FBC01CD010E944900DC01CB0105
:102CE000F801918380831FC0FE01EB59FF4F89E1FA
:102CF00090E091838083FE01EB59FF4F80819181A9
:102D00000197F1F7FE01EB59FF4F91838083DE01BC
:102D1000A959BF4FFE01E959FF4F80819181019769
:102D200011969C938E93FE01E959FF4F808191810A
:102D30000097D1F627C08E0109591F4FFE01E759B0
:102D4000FF4F60817181828193810E944900DC0183
:102D5000CB01F80191838083DE01AD59BF4FFE01A5
:102D6000E959FF4F808191818D939C93FE01ED592C
:102D7000FF4F808191810197F1F7FE01ED59FF4FDF
:102D80009183808380E067E040E00E94F12880E04A
:102D900066E040E00E94F12880E065E040E00E94AB
:102DA000F12880E064E041E00E94F128FE01E95A48
:102DB000FE4F8081882F90E0A0E0B0E0BC01CD0103
:102DC0000E94FD03DC01CB01FE01E15AFF4F80832D
:102DD0009183A283B3838E01055A1F4FFE01E15AEE
:102DE000FF4F608171818281938120E030E04AE76A
:102DF00053E40E941F02DC01CB01F8018083918320
:102E0000A283B383FE01E55AFF4F60817181828105
:102E1000938120E030E040E85FE30E94790388235B
:102E200044F4FE01E75AFF4F81E090E091838083F4
:102E300064C0FE01E55AFF4F6081718182819381F8
:102E400020E03FEF4FE757E40E94190318160CF0FB
:102E500043C0FE01E15AFF4F6081718182819381FD
:102E600020E030E040E251E40E941F02DC01CB018F
:102E70008E01075A1F4FBC01CD010E944900DC01A1
:102E8000CB01F801918380831FC0FE01E95AFF4FF7
:102E900089E190E091838083FE01E95AFF4F8081B0
:102EA00091810197F1F7FE01E95AFF4F91838083E9
:102EB000DE01A75ABF4FFE01E75AFF4F8081918183
:102EC000019711969C938E93FE01E75AFF4F8081E4
:102ED00091810097D1F627C08E01075A1F4FFE013E
:102EE000E55AFF4F60817181828193810E94490080
:102EF000DC01CB01F80191838083DE01AB5ABF4F27
:102F0000FE01E75AFF4F808191818D939C93FE01D2
:102F1000EB5AFF4F808191810197F1F7FE01EB5A47
:102F2000FF4F9183808380E067E040E00E94F128BA
:102F300080E066E040E00E94F12880E065E041E04A
:102F40000E94F12880E064E041E00E94F128FE0147
:102F5000E95AFE4F8081882F90E0A0E0B0E0BC01EC
:102F6000CD010E94FD03DC01CB01FE01EF5AFF4FB2
:102F700080839183A283B3838E01035B1F4FFE0185
:102F8000EF5AFF4F608171818281938120E030E0B0
:102F90004AE753E40E941F02DC01CB01F801808361
:102FA0009183A283B383FE01E35BFF4F6081718154
:102FB0008281938120E030E040E85FE30E94790362
:102FC000882344F4FE01E55BFF4F81E090E09183AC
:102FD000808364C0FE01E35BFF4F60817181828169
:102FE000938120E03FEF4FE757E40E941903181642
:102FF0000CF043C0FE01EF5AFF4F60817181828166
:10300000938120E030E040E251E40E941F02DC01A5
:10301000CB018E01055B1F4FBC01CD010E94490011
:10302000DC01CB01F801918380831FC0FE01E75BC7
:10303000FF4F89E190E091838083FE01E75BFF4FC2
:10304000808191810197F1F7FE01E75BFF4F91834A
:103050008083DE01A55BBF4FFE01E55BFF4F8081F2
:103060009181019711969C938E93FE01E55BFF4F32
:10307000808191810097D1F627C08E01055B1F4F9B
:10308000FE01E35BFF4F60817181828193810E9429
:103090004900DC01CB01F80191838083DE01A95B4B
:1030A000BF4FFE01E55BFF4F808191818D939C9323
:1030B000FE01E95BFF4F808191810197F1F7FE01ED
:1030C000E95BFF4F9183808380E067E040E00E94EE
:1030D000F12880E066E040E00E94F12880E065E0B1
:1030E00041E00E94F12880E064E040E00E94F12885
:1030F000FE01E95AFE4F8081882F90E0A0E0B0E009
:10310000BC01CD010E94FD03DC01CB01FE01ED5BA2
:10311000FF4F80839183A283B3838E01015C1F4F95
:10312000FE01ED5BFF4F608171818281938120E020
:1031300030E04AE753E40E941F02DC01CB01F801B2
:1031400080839183A283B383FE01FF9660817181A6
:103150008281938120E030E040E85FE30E947903C0
:1031600088232CF481E090E09EAF8DAF46C0FE0135
:10317000FF96608171818281938120E03FEF4FE76C
:1031800057E40E941903181664F5FE01ED5BFF4F2A
:10319000608171818281938120E030E040E251E4DE
:1031A0000E941F02DC01CB01BC01CD010E9449003D
:1031B000DC01CB019EAF8DAF0FC089E190E09CAFE9
:1031C0008BAF8BAD9CAD0197F1F79CAF8BAF8DAD05
:1031D0009EAD01979EAF8DAF8DAD9EAD009769F707
:1031E00016C0FE01FF9660817181828193810E94E9
:1031F0004900DC01CB019EAF8DAF8DAD9EAD9AAF86
:1032000089AF89AD9AAD0197F1F79AAF89AF80E0A8
:1032100067E040E00E94F12880E066E041E00E9423
:10322000F12880E065E041E00E94F12880E064E060
:1032300040E00E94F128FE01E95AFE4F8081882F6C
:1032400090E0A0E0B0E0BC01CD010E94FD03DC01F4
:10325000CB018DAB9EABAFABB8AF6DA97EA98FA9EB
:1032600098AD20E030E04AE753E40E941F02DC0101
:10327000CB0189AB9AABABABBCAB69A97AA98BA9E3
:103280009CA920E030E040E85FE30E9479038823B6
:103290002CF481E090E098AB8FA73FC069A97AA990
:1032A0008BA99CA920E03FEF4FE757E40E94190348
:1032B00018164CF56DA97EA98FA998AD20E030E0D5
:1032C00040E251E40E941F02DC01CB01BC01CD01B0
:1032D0000E944900DC01CB0198AB8FA70FC089E1A8
:1032E00090E09EA78DA78DA59EA50197F1F79EA7BB
:1032F0008DA78FA598A9019798AB8FA78FA598A99F
:10330000009769F714C069A97AA98BA99CA90E94A2
:103310004900DC01CB0198AB8FA78FA598A99CA78A
:103320008BA78BA59CA50197F1F79CA78BA780E0A5
:1033300067E040E00E94F12880E066E041E00E9402
:10334000F12880E065E040E00E94F12880E064E040
:1033500040E00E94F128FE01E95AFE4F8081882F4B
:1033600090E0A0E0B0E0BC01CD010E94FD03DC01D3
:10337000CB018FA398A7A9A7BAA76FA178A589A504
:103380009AA520E030E04AE753E40E941F02DC01E6
:10339000CB018BA39CA3ADA3BEA36BA17CA18DA1EC
:1033A0009EA120E030E040E85FE30E94790388239B
:1033B0002CF481E090E09AA389A33FC06BA17CA18B
:1033C0008DA19EA120E03FEF4FE757E40E94190333
:1033D00018164CF56FA178A589A59AA520E030E0D4
:1033E00040E251E40E941F02DC01CB01BC01CD018F
:1033F0000E944900DC01CB019AA389A30FC089E197
:1034000090E098A38F8F8F8D98A10197F1F798A3E3
:103410008F8F89A19AA101979AA389A389A19AA1C3
:10342000009769F714C06BA17CA18DA19EA10E9499
:103430004900DC01CB019AA389A389A19AA19E8F9F
:103440008D8F8D8D9E8D0197F1F79E8F8D8F80E0F2
:1034500067E041E00E94F12880E066E041E00E94E0
:10346000F12880E065E040E00E94F12880E064E01F
:1034700040E00E94F128FE01E95AFE4F8081882F2A
:1034800090E0A0E0B0E0BC01CD010E94FD03DC01B2
:10349000CB01898F9A8FAB8FBC8F698D7A8D8B8D85
:1034A0009C8D20E030E04AE753E40E941F02DC01DB
:1034B000CB018D8B9E8BAF8BB88F6D897E898F8969
:1034C000988D20E030E040E85FE30E947903882394
:1034D0002CF481E090E09C8B8B8B3FC06D897E89C2
:1034E0008F89988D20E03FEF4FE757E40E94190342
:1034F00018164CF5698D7A8D8B8D9C8D20E030E00F
:1035000040E251E40E941F02DC01CB01BC01CD016D
:103510000E944900DC01CB019C8B8B8B0FC089E1A1
:1035200090E09A8B898B89899A890197F1F79A8B18
:10353000898B8B899C8901979C8B8B8B8B899C8930
:10354000009769F714C06D897E898F89988D0E94D4
:103550004900DC01CB019C8B8B8B8B899C89988BE0
:103560008F878F8598890197F1F7988B8F8780E0F7
:1035700067E041E00E94F12880E066E040E00E94C0
:10358000F12880E065E040E00E94F12880E064E0FE
:1035900040E00E94F128FE01E95AFE4F8081882F09
:1035A00090E0A0E0B0E0BC01CD010E94FD03DC0191
:1035B000CB018B879C87AD87BE876B857C858D858E
:1035C0009E8520E030E04AE753E40E941F02DC01C0
:1035D000CB018F839887A987BA876F817885898582
:1035E0009A8520E030E040E85FE30E947903882379
:1035F0002CF481E090E09E838D833FC06F817885BD
:1036000089859A8520E03FEF4FE757E40E94190330
:1036100018164CF56B857C858D859E8520E030E005
:1036200040E251E40E941F02DC01CB01BC01CD014C
:103630000E944900DC01CB019E838D830FC089E18C
:1036400090E09C838B838B819C810197F1F79C8315
:103650008B838D819E8101979E838D838D819E8139
:10366000009769F714C06F81788589859A850E94D3
:103670004900DC01CB019E838D838D819E819A83DD
:10368000898389819A810197F1F79A8389839E01C1
:103690002F5A3E4FFE01EF5AFE4F80819181A28149
:1036A000B3810196A11DB11DF90180839183A2838D
:1036B000B383FE01E85AFE4F80819181CC01A0E0E6
:1036C000B0E0072E79E0880F991FAA1FBB1F7A95DB
:1036D000D1F7702D28E631E040E050E0BC01CD018B
:1036E0000E94BF2EDA01C9019C01AD01FE01EF5A13
:1036F000FE4F80819181A281B38182179307A40735
:10370000B50708F46ECAC75ADE4F0FB6F894DEBF8D
:103710000FBECDBFCF91DF911F910F910895DF9321
:10372000CF93CDB7DEB782E060E040E00E94E227B1
:1037300082E060E041E00E94F12882E061E040E048
:103740000E94E22782E061E041E00E94F12882E0ED
:1037500062E040E00E94E22782E062E041E00E94F5
:10376000F12882E063E040E00E94E22782E063E02B
:1037700041E00E94F12882E064E041E00E94E227FB
:1037800082E064E041E00E94F12882E065E041E0EF
:103790000E94E22782E065E041E00E94F12882E099
:1037A00066E041E00E94E22782E066E041E00E949C
:1037B000F12882E067E041E00E94E22782E067E0D2
:1037C00041E00E94F128CF91DF910895DF93CF93DC
:1037D000CDB7DEB7A0970FB6F894DEBF0FBECDBF52
:1037E0008FEF8F8F84E08D8F27C182E06D8D40E059
:1037F0000E94F1281E8E14C19E01205E3F4F82E080
:103800006E8DA9010E94002A88A1882309F005C1B4
:1038100080E090E0A8E4B2E4898F9A8FAB8FBC8FF0
:10382000698D7A8D8B8D9C8D20E030E04AE753E4E2
:103830000E941F02DC01CB018D8B9E8BAF8BB88F5A
:103840006D897E898F89988D20E030E040E85FE3C4
:103850000E94790388232CF481E090E09C8B8B8B71
:103860003FC06D897E898F89988D20E03FEF4FE7BB
:1038700057E40E94190318164CF5698D7A8D8B8DCB
:103880009C8D20E030E040E251E40E941F02DC0108
:10389000CB01BC01CD010E944900DC01CB019C8B16
:1038A0008B8B0FC089E190E09A8B898B89899A89EB
:1038B0000197F1F79A8B898B8B899C8901979C8B57
:1038C0008B8B8B899C89009769F714C06D897E89E1
:1038D0008F89988D0E944900DC01CB019C8B8B8BDA
:1038E0008B899C89988B8F878F8598890197F1F7B1
:1038F000988B8F879E01205E3F4F82E06E8DA901DD
:103900000E94002A88A18823A9F48E8D482F50E0B8
:103910008D8D882F90E09C0124503040CA01880F83
:10392000991F880F991F820F931FFC01E859FE4FC2
:1039300080818F8F80E090E0A8E4B3E48B879C8740
:10394000AD87BE876B857C858D859E8520E030E0C8
:103950004AE753E40E941F02DC01CB018F83988762
:10396000A987BA876F81788589859A8520E030E0BC
:1039700040E85FE30E94790388232CF481E090E023
:103980009E838D833FC06F81788589859A8520E0ED
:103990003FEF4FE757E40E94190318164CF56B856B
:1039A0007C858D859E8520E030E040E251E40E94D8
:1039B0001F02DC01CB01BC01CD010E944900DC01EA
:1039C000CB019E838D830FC089E190E09C838B8324
:1039D0008B819C810197F1F79C838B838D819E81E4
:1039E00001979E838D838D819E81009769F71CC00E
:1039F0006F81788589859A850E944900DC01CB0119
:103A00009E838D838D819E819A83898389819A810A
:103A10000197F1F79A83898307C08E8D8F5F8E8F10
:103A20008E8D833008F4E8CE82E06D8D41E00E94F7
:103A3000F1288D8D8F5F8D8F8D8D873008F4D5CED9
:103A40008F8DA0960FB6F894DEBF0FBECDBFCF917D
:103A5000DF9108950F931F93DF93CF93CDB7DEB718
:103A6000C455D0400FB6F894DEBF0FBECDBF80E086
:103A70006FEF0E94222D81E06FEF0E94222DFE0148
:103A8000EF5AFF4F80E090E0A0EFB1E48083918394
:103A9000A283B3838E01035B1F4FFE01EF5AFF4FDA
:103AA000608171818281938120E030E04AE753E4B4
:103AB0000E941F02DC01CB01F80180839183A28365
:103AC000B383FE01E35BFF4F60817181828193814B
:103AD00020E030E040E85FE30E947903882344F46B
:103AE000FE01E55BFF4F81E090E09183808364C03D
:103AF000FE01E35BFF4F608171818281938120E051
:103B00003FEF4FE757E40E94190318160CF043C02B
:103B1000FE01EF5AFF4F608171818281938120E025
:103B200030E040E251E40E941F02DC01CB018E0133
:103B3000055B1F4FBC01CD010E944900DC01CB0198
:103B4000F801918380831FC0FE01E75BFF4F89E18D
:103B500090E091838083FE01E75BFF4F808191813C
:103B60000197F1F7FE01E75BFF4F91838083DE0150
:103B7000A55BBF4FFE01E55BFF4F808191810197FF
:103B800011969C938E93FE01E55BFF4F808191819E
:103B90000097D1F627C08E01055B1F4FFE01E35B46
:103BA000FF4F60817181828193810E944900DC0115
:103BB000CB01F80191838083DE01A95BBF4FFE0139
:103BC000E55BFF4F808191818D939C93FE01E95BC2
:103BD000FF4F808191810197F1F7FE01E95BFF4F73
:103BE0009183808382E00E945A20FE01ED5BFF4FAB
:103BF00080E090E0A0E8BFE380839183A283B38359
:103C00008E01015C1F4FFE01ED5BFF4F60817181F2
:103C10008281938120E030E04AE753E40E941F0252
:103C2000DC01CB01F80180839183A283B383FE0181
:103C3000FF96608171818281938120E030E040E8CD
:103C40005FE30E94790388232CF481E090E09EAF2B
:103C50008DAF46C0FE01FF966081718182819381A4
:103C600020E03FEF4FE757E40E941903181664F570
:103C7000FE01ED5BFF4F608171818281938120E0C5
:103C800030E040E251E40E941F02DC01CB01BC01A4
:103C9000CD010E944900DC01CB019EAF8DAF0FC06A
:103CA00089E190E09CAF8BAF8BAD9CAD0197F1F7B4
:103CB0009CAF8BAF8DAD9EAD01979EAF8DAF8DAD9F
:103CC0009EAD009769F716C0FE01FF966081718175
:103CD000828193810E944900DC01CB019EAF8DAFB0
:103CE0008DAD9EAD9AAF89AF89AD9AAD0197F1F7D1
:103CF0009AAF89AF88E30E945A2080E090E0A0E864
:103D0000BFE38DAB9EABAFABB8AF6DA97EA98FA95A
:103D100098AD20E030E04AE753E40E941F02DC0146
:103D2000CB0189AB9AABABABBCAB69A97AA98BA928
:103D30009CA920E030E040E85FE30E9479038823FB
:103D40002CF481E090E098AB8FA73FC069A97AA9D5
:103D50008BA99CA920E03FEF4FE757E40E9419038D
:103D600018164CF56DA97EA98FA998AD20E030E01A
:103D700040E251E40E941F02DC01CB01BC01CD01F5
:103D80000E944900DC01CB0198AB8FA70FC089E1ED
:103D900090E09EA78DA78DA59EA50197F1F79EA700
:103DA0008DA78FA598A9019798AB8FA78FA598A9E4
:103DB000009769F714C069A97AA98BA99CA90E94E8
:103DC0004900DC01CB0198AB8FA78FA598A99CA7D0
:103DD0008BA78BA59CA50197F1F79CA78BA78CE0DF
:103DE0000E945A2080E090E0A0E8BFE38FA398A74C
:103DF000A9A7BAA76FA178A589A59AA520E030E068
:103E00004AE753E40E941F02DC01CB018BA39CA371
:103E1000ADA3BEA36BA17CA18DA19EA120E030E04B
:103E200040E85FE30E94790388232CF481E090E06E
:103E30009AA389A33FC06BA17CA18DA19EA120E084
:103E40003FEF4FE757E40E94190318164CF56FA196
:103E500078A589A59AA520E030E040E251E40E94CF
:103E60001F02DC01CB01BC01CD010E944900DC0135
:103E7000CB019AA389A30FC089E190E098A38F8F0B
:103E80008F8D98A10197F1F798A38F8F89A19AA19F
:103E900001979AA389A389A19AA1009769F714C0F1
:103EA0006BA17CA18DA19EA10E944900DC01CB01E8
:103EB0009AA389A389A19AA19E8F8D8F8D8D9E8DA6
:103EC0000197F1F79E8F8D8F81E00E945A2080E04C
:103ED00090E0A0E0B0E4898F9A8FAB8FBC8F698DA2
:103EE0007A8D8B8D9C8D20E030E04AE753E40E9470
:103EF0001F02DC01CB018D8B9E8BAF8BB88F6D8940
:103F00007E898F89988D20E030E040E85FE30E9451
:103F1000790388232CF481E090E09C8B8B8B3FC04D
:103F20006D897E898F89988D20E03FEF4FE757E4B8
:103F30000E94190318164CF5698D7A8D8B8D9C8D16
:103F400020E030E040E251E40E941F02DC01CB019E
:103F5000BC01CD010E944900DC01CB019C8B8B8B05
:103F60000FC089E190E09A8B898B89899A890197A2
:103F7000F1F79A8B898B8B899C8901979C8B8B8B12
:103F80008B899C89009769F714C06D897E898F8918
:103F9000988D0E944900DC01CB019C8B8B8B8B8917
:103FA0009C89988B8F878F8598890197F1F7988BDB
:103FB0008F8786E00E945A2080E090E0A0E8BFE36F
:103FC0008B879C87AD87BE876B857C858D859E851D
:103FD00020E030E04AE753E40E941F02DC01CB01FD
:103FE0008F839887A987BA876F81788589859A8515
:103FF00020E030E040E85FE30E94790388232CF45E
:1040000081E090E09E838D833FC06F8178858985B4
:104010009A8520E03FEF4FE757E40E9419031816F6
:104020004CF56B857C858D859E8520E030E040E2F7
:1040300051E40E941F02DC01CB01BC01CD010E94B2
:104040004900DC01CB019E838D830FC089E190E0A4
:104050009C838B838B819C810197F1F79C838B835D
:104060008D819E8101979E838D838D819E81009796
:1040700069F714C06F81788589859A850E94490007
:10408000DC01CB019E838D838D819E819A83898300
:1040900089819A810197F1F79A838983CC5ADF4FFE
:1040A0000FB6F894DEBF0FBECDBFCF91DF911F9149
:1040B0000F910895DF93CF930F92CDB7DEB7898329
:1040C00081E069810E946F2D80E060E040E00E9405
:1040D000F12880E061E040E00E94F1280E94D220B7
:1040E0000F90CF91DF910895DF93CF930F92CDB7CB
:1040F000DEB7898380E060E041E00E94F12880E043
:1041000061E040E00E94F12881E069810E946F2D0A
:104110000E94D2200F90CF91DF910895DF93CF932B
:1041200000D00F92CDB7DEB78A836B838A8181304E
:1041300021F48B818158898303C08B8181548983C9
:1041400089810E945A200F900F900F90CF91DF919C
:104150000895DF93CF9300D00F92CDB7DEB79B8346
:104160008A8319820EC08981282F30E08A819B8141
:10417000FC01E20FF31F80810E94742089818F5F10
:1041800089838981282F30E08A819B81FC01E20F9D
:10419000F31F8081882339F70F900F900F90CF91F4
:1041A000DF910895DF93CF93CDB7DEB72E970FB68B
:1041B000F894DEBF0FBECDBF80E062E041E00E9418
:1041C000F12880E090E0A0E8BFE38B879C87AD8773
:1041D000BE876B857C858D859E8520E030E04AE733
:1041E00053E40E941F02DC01CB018F839887A987CB
:1041F000BA876F81788589859A8520E030E040E82C
:104200005FE30E94790388232CF481E090E09E8391
:104210008D833FC06F81788589859A8520E03FEF47
:104220004FE757E40E94190318164CF56B857C85FF
:104230008D859E8520E030E040E251E40E941F021F
:10424000DC01CB01BC01CD010E944900DC01CB01A6
:104250009E838D830FC089E190E09C838B838B814B
:104260009C810197F1F79C838B838D819E810197BF
:104270009E838D838D819E81009769F714C06F8125
:10428000788589859A850E944900DC01CB019E834F
:104290008D838D819E819A83898389819A810197FB
:1042A000F1F79A83898380E062E040E00E94F12880
:1042B0002E960FB6F894DEBF0FBECDBFCF91DF9123
:1042C0000895DF93CF9300D000D0CDB7DEB76983D8
:1042D0007A838B839C838A816FEF0E94222D0F90BB
:1042E0000F900F900F90CF91DF910895DF93CF93B0
:1042F00000D000D00F92CDB7DEB769837A838B836D
:104300009C834D838981882369F42A818D81882F3C
:1043100090E0FC01E858FE4F9081822F692F0E94A7
:104320006F2D11C08981813071F42A818D81882F90
:1043300090E0FC01E858FE4F8081982F9095822FE5
:10434000692F0E946F2D0F900F900F900F900F907C
:10435000CF91DF910895DF93CF9300D000D0CDB7F8
:10436000DEB769837A838B839C838A819C81692FE2
:1043700041E00E94E2278981882339F48A819C8167
:10438000692F40E00E94F12809C08981813031F411
:104390008A819C81692F41E00E94F1280F900F9043
:1043A0000F900F90CF91DF910895DF93CF9300D0BE
:1043B00000D0CDB7DEB769837A838B839C838A81F3
:1043C0009C81692F41E00E94E2278981882339F48A
:1043D0008A819C81692F41E00E94F12809C089816E
:1043E000813031F48A819C81692F40E00E94F1285C
:1043F0000F900F900F900F90CF91DF910895DF9362
:10440000CF9300D00F92CDB7DEB769837A838B83C9
:1044100089819A81692F40E00E94E2278B8188235D
:1044200031F489819A81692F41E00E94F1280F902F
:104430000F900F90CF91DF910895DF93CF9300D02D
:1044400000D00F92CDB7DEB76B837C838D8319824A
:104450001A828D81882319F08D818130A1F48B819E
:104460009C819E012E5F3F4F692FA9010E94002A67
:104470008A81882319F481E089831BC08A81813075
:10448000C1F4198216C08D81823099F48B819C8190
:104490009E012E5F3F4F692FA9010E94002A8A8149
:1044A000882311F4198205C08A81813011F481E0DA
:1044B000898389810F900F900F900F900F90CF916B
:1044C000DF910895DF93CF9300D00F92CDB7DEB781
:1044D00069837A838B8389819A81692F41E00E9465
:1044E000E2270F900F900F90CF91DF910895DF9307
:1044F000CF9300D00F92CDB7DEB769837A838B83D9
:104500008B81813039F489819A81692F41E00E9441
:10451000F12806C089819A81692F40E00E94F12824
:104520000F900F900F90CF91DF910895DF93CF936D
:1045300000D00F92CDB7DEB769837A838B838B81EE
:10454000813039F489819A81692F40E00E94F128F5
:1045500009C08B81882331F489819A81692F41E0D8
:104560000E94F1280F900F900F90CF91DF91089546
:10457000DF93CF9300D00F92CDB7DEB769837A83F4
:104580008B8389819A81692F0E94C52A0F900F9091
:104590000F90CF91DF910895DF93CF9300D00F92CA
:1045A000CDB7DEB769837A838B8389819A81692F3E
:1045B00041E00E94E2270F900F900F90CF91DF9182
:1045C0000895DF93CF9300D00F92CDB7DEB7698304
:1045D0007A838B838B81813039F489819A81692F29
:1045E00041E00E94F12806C089819A81692F40E04C
:1045F0000E94F1280F900F900F90CF91DF910895B6
:10460000DF93CF9300D00F92CDB7DEB769837A8363
:104610008B838B81813039F489819A81692F40E0C5
:104620000E94F12809C08B81882331F489819A8105
:10463000692F41E00E94F1280F900F900F90CF91C9
:10464000DF910895DF93CF9300D00F92CDB7DEB7FF
:1046500069837A838B8389819A81692F0E94C52A15
:104660000F900F900F90CF91DF910895DF93CF932C
:10467000CDB7DEB760970FB6F894DEBF0FBECDBFE3
:10468000888B88896FEF0E94222D1F861F8679C034
:1046900088896F850E946F2D80E090E0AAE7B4E4DE
:1046A0008B879C87AD87BE876B857C858D859E8536
:1046B00020E030E04AE753E40E941F02DC01CB0116
:1046C0008F839887A987BA876F81788589859A852E
:1046D00020E030E040E85FE30E94790388232CF477
:1046E00081E090E09E838D833FC06F8178858985CE
:1046F0009A8520E03FEF4FE757E40E941903181610
:104700004CF56B857C858D859E8520E030E040E210
:1047100051E40E941F02DC01CB01BC01CD010E94CB
:104720004900DC01CB019E838D830FC089E190E0BD
:104730009C838B838B819C810197F1F79C838B8376
:104740008D819E8101979E838D838D819E810097AF
:1047500069F714C06F81788589859A850E94490020
:10476000DC01CB019E838D838D819E819A83898319
:1047700089819A810197F1F79A8389838F858F5F69
:104780008F878F858A3008F483CF60960FB6F894B0
:10479000DEBF0FBECDBFCF91DF910895DF93CF93E2
:1047A000CDB7DEB7AFE5B0E0EFE5F0E0808180683F
:1047B0008C93CF91DF910895DF93CF93CDB7DEB780
:1047C000AFE5B0E0EFE5F0E080818F778C93CF919B
:1047D000DF910895DF93CF9300D0CDB7DEB79A83F2
:1047E0008983AFE4B0E0EFE4F0E080818F778C93D1
:1047F000AFE4B0E0EFE4F0E080818F778C93AFE43A
:10480000B0E0EFE4F0E080818F7D8C93AFE4B0E026
:10481000EFE4F0E080818F7D8C93AEE4B0E0EEE4D5
:10482000F0E0808180618C93AEE4B0E0EEE4F0E0F3
:10483000808188608C93AFE4B0E0EFE4F0E08081A9
:1048400082608C93AFE4B0E0EFE4F0E080818E7F93
:104850008C93AFE4B0E0EFE4F0E080818F738C9351
:10486000AFE4B0E0EFE4F0E0808180688C93AFE4E7
:10487000B0E0EFE4F0E080818F7C8C93AFE4B0E0B7
:10488000EFE4F0E0808180638C93E6E4F0E08981DE
:104890009A8191838083AEE4B0E0EEE4F0E0808121
:1048A0008B7F8C93AEE4B0E0EEE4F0E08081826038
:1048B0008C93AEE4B0E0EEE4F0E080818E7F8C93E8
:1048C0000F900F90CF91DF910895DF93CF9300D099
:1048D00000D00F92CDB7DEB789837B836A8389814D
:1048E000282F30E03D832C838C819D81009731F00F
:1048F0002C813D812130310541F00DC0EAE4F0E02A
:104900008A819B819183808306C0E8E4F0E08A81FC
:104910009B81918380830F900F900F900F900F9049
:10492000CF91DF910895DF93CF93CDB7DEB7AFE49A
:10493000B0E0EFE4F0E080818E7F8C93AFE4B0E0F4
:10494000EFE4F0E080818D7F8C93AEE4B0E0EEE4A4
:10495000F0E08081877F8C93AFE4B0E0EFE4F0E09B
:1049600080818F7E8C93A9E5B0E0E9E5F0E080815D
:1049700080628C93AEE4B0E0EEE4F0E080818B7F67
:104980008C93AEE4B0E0EEE4F0E0808182608C9342
:10499000AEE4B0E0EEE4F0E080818E7F8C93CF91C6
:1049A000DF910895DF93CF93CDB7DEB7E6E4F0E073
:1049B00080819181CF91DF910895DF93CF9300D0D3
:1049C0000F92CDB7DEB789838981282F30E03B83F2
:1049D0002A838A819B81009731F02A813B81213093
:1049E000310549F00FC0AEE4B0E0EEE4F0E08081C4
:1049F0008F7B8C9307C0AEE4B0E0EEE4F0E0808102
:104A000080648C930F900F900F90CF91DF91089559
:104A1000DF93CF9300D0CDB7DEB79A8389838981A6
:104A20009A8190938B0180938A010F900F90CF9180
:104A3000DF9108951F920F920FB60F9211242F93BA
:104A40003F934F935F936F937F938F939F93AF9316
:104A5000BF93EF93FF93DF93CF93CDB7DEB7E09192
:104A60008A01F0918B010995CF91DF91FF91EF9130
:104A7000BF91AF919F918F917F916F915F914F9176
:104A80003F912F910F900FBE0F901F901895DF93BD
:104A9000CF93CDB7DEB7A5E4B0E0E5E4F0E08081E8
:104AA00088608C93A5E4B0E0E5E4F0E080818F7B42
:104AB0008C93E3E4F0E08DE78083A5E4B0E0E5E4E7
:104AC000F0E080818F7E8C93A5E4B0E0E5E4F0E037
:104AD00080818F7D8C93A9E5B0E0E9E5F0E08081ED
:104AE00080688C93A5E4B0E0E5E4F0E0808182602A
:104AF0008C93A5E4B0E0E5E4F0E080818B7F8C93BB
:104B0000A5E4B0E0E5E4F0E080818E7F8C93CF9166
:104B1000DF910895DF93CF930F92CDB7DEB78983EE
:104B2000E3E4F0E0898180830F90CF91DF910895D5
:104B3000DF93CF9300D0CDB7DEB79A838983898185
:104B40009A8190938D0180938C010F900F90CF915B
:104B5000DF9108951F920F920FB60F9211242F9399
:104B60003F934F935F936F937F938F939F93AF93F5
:104B7000BF93EF93FF93DF93CF93CDB7DEB7E09171
:104B80008C01F0918D010995CF91DF91FF91EF910B
:104B9000BF91AF919F918F917F916F915F914F9155
:104BA0003F912F910F900FBE0F901F901895DF939C
:104BB000CF93CDB7DEB72A970FB6F894DEBF0FBEFE
:104BC000CDBF89836A838981282F30E03A8729877E
:104BD00089859A858130910561F029853A85223051
:104BE000310509F4CAC089859A85009709F463C024
:104BF000E9C08A81282F30E038872F838F819885FC
:104C00008130910521F12F813885223031052CF436
:104C10008F819885009761F046C02F8138852230BA
:104C2000310521F18F8198858330910571F13BC069
:104C3000A5E5B0E0E5E5F0E08081877F8C93A5E510
:104C4000B0E0E5E5F0E080818B7F8C932CC0A5E59A
:104C5000B0E0E5E5F0E08081877F8C93A5E5B0E0EA
:104C6000E5E5F0E0808184608C931DC0A5E5B0E0AF
:104C7000E5E5F0E0808188608C93A5E5B0E0E5E5AE
:104C8000F0E080818B7F8C930EC0A5E5B0E0E5E578
:104C9000F0E0808188608C93A5E5B0E0E5E5F0E088
:104CA000808184608C93ABE5B0E0EBE5F0E080813F
:104CB00080688C9387C08A81282F30E03E832D83C3
:104CC0008D819E818130910521F12D813E8122309F
:104CD00031052CF48D819E81009761F046C02D81B5
:104CE0003E812230310521F18D819E8183309105F5
:104CF00071F13BC0A5E5B0E0E5E5F0E080818D7F96
:104D00008C93A5E5B0E0E5E5F0E080818E7F8C93A3
:104D10002CC0A5E5B0E0E5E5F0E080818D7F8C93C7
:104D2000A5E5B0E0E5E5F0E0808181608C931DC0F1
:104D3000A5E5B0E0E5E5F0E0808182608C93A5E533
:104D4000B0E0E5E5F0E080818E7F8C930EC0A5E5B4
:104D5000B0E0E5E5F0E0808182608C93A5E5B0E00D
:104D6000E5E5F0E0808181608C93ABE5B0E0EBE5B8
:104D7000F0E0808180648C9325C08A81282F30E008
:104D80003C832B838B819C81009731F02B813C816C
:104D90002130310549F00FC0A4E5B0E0E4E5F0E0D2
:104DA00080818F7B8C9307C0A4E5B0E0E4E5F0E060
:104DB000808180648C93ABE5B0E0EBE5F0E080812E
:104DC00080628C932A960FB6F894DEBF0FBECDBFDB
:104DD000CF91DF910895DF93CF9300D000D00F9251
:104DE000CDB7DEB789837B836A838981282F30E042
:104DF0003D832C838C819D818130910581F02C81B4
:104E00003D812230310591F08C819D810097A1F484
:104E10008A819B8190938F0180938E010DC08A813E
:104E20009B81909391018093900106C08A819B8120
:104E300090939301809392010F900F900F900F9099
:104E40000F90CF91DF910895DF93CF9300D00F9211
:104E5000CDB7DEB789838981282F30E03B832A8351
:104E60008A819B818130910589F02A813B812230A2
:104E70003105A1F08A819B810097B9F4AAE5B0E0E1
:104E8000EAE5F0E0808180648C930FC0AAE5B0E091
:104E9000EAE5F0E0808180688C9307C0AAE5B0E085
:104EA000EAE5F0E0808180628C930F900F900F9084
:104EB000CF91DF9108951F920F920FB60F92112498
:104EC0002F933F934F935F936F937F938F939F9312
:104ED000AF93BF93EF93FF93DF93CF93CDB7DEB73D
:104EE000E0918E01F0918F010995CF91DF91FF91B3
:104EF000EF91BF91AF919F918F917F916F915F9152
:104F00004F913F912F910F900FBE0F901F901895CA
:104F10001F920F920FB60F9211242F933F934F932E
:104F20005F936F937F938F939F93AF93BF93EF9311
:104F3000FF93DF93CF93CDB7DEB7E0919001F0916F
:104F400091010995CF91DF91FF91EF91BF91AF91C1
:104F50009F918F917F916F915F914F913F912F9191
:104F60000F900FBE0F901F9018951F920F920FB6C3
:104F70000F9211242F933F934F935F936F937F93DF
:104F80008F939F93AF93BF93EF93FF93DF93CF9351
:104F9000CDB7DEB7E0919201F09193010995CF91E1
:104FA000DF91FF91EF91BF91AF919F918F917F9191
:104FB0006F915F914F913F912F910F900FBE0F9086
:104FC0001F901895DF93CF93CDB7DEB728970FB614
:104FD000F894DEBF0FBECDBF8A836B834C8381E024
:104FE00089838A81843008F0F1C08B81883008F091
:104FF000EDC08C81813009F06FC08A81282F30E0AC
:1050000038872F838F8198858130910549F12F81D1
:105010003885223031052CF48F819885009761F016
:10502000D6C02F8138852230310571F18F81988566
:1050300083309105E9F1CBC0AAE3B0E0EAE3F0E008
:105040008081482F8B81282F30E081E090E0022E74
:1050500002C0880F991F0A94E2F7842B8C93B7C083
:10506000A7E3B0E0E7E3F0E08081482F8B81282FB1
:1050700030E081E090E0022E02C0880F991F0A9470
:10508000E2F7842B8C93A3C0A4E3B0E0E4E3F0E068
:105090008081482F8B81282F30E081E090E0022E24
:1050A00002C0880F991F0A94E2F7842B8C938FC05B
:1050B000A1E3B0E0E1E3F0E08081482F8B81282F6D
:1050C00030E081E090E0022E02C0880F991F0A9420
:1050D000E2F7842B8C937BC08C81882309F074C009
:1050E0008A81282F30E03E832D838D819E818130FF
:1050F000910559F12D813E81223031052CF48D81AD
:105100009E81009769F063C02D813E812230310578
:1051100089F18D819E818330910509F440C057C08B
:10512000AAE3B0E0EAE3F0E08081482F8B81282FEA
:1051300030E081E090E0022E02C0880F991F0A94AF
:10514000E2F7809584238C9342C0A7E3B0E0E7E3C5
:10515000F0E08081482F8B81282F30E081E090E0C3
:10516000022E02C0880F991F0A94E2F780958423CB
:105170008C932DC0A4E3B0E0E4E3F0E08081482FFD
:105180008B81282F30E081E090E0022E02C0880F52
:10519000991F0A94E2F7809584238C9318C0A1E3A9
:1051A000B0E0E1E3F0E08081482F8B81282F30E0F0
:1051B00081E090E0022E02C0880F991F0A94E2F766
:1051C000809584238C9303C0198201C01982898140
:1051D00028960FB6F894DEBF0FBECDBFCF91DF91FA
:1051E0000895DF93CF93CDB7DEB728970FB6F89425
:1051F000DEBF0FBECDBF8A836B834C8381E0898382
:105200008A81843008F0F1C08B81883008F0EDC0CD
:105210008C81813009F06FC08A81282F30E0388777
:105220002F838F8198858130910549F12F813885B1
:10523000223031052CF48F819885009761F0D6C01B
:105240002F8138852230310571F18F819885833027
:105250009105E9F1CBC0ABE3B0E0EBE3F0E0808196
:10526000482F8B81282F30E081E090E0022E02C091
:10527000880F991F0A94E2F7842B8C93B7C0A8E398
:10528000B0E0E8E3F0E08081482F8B81282F30E008
:1052900081E090E0022E02C0880F991F0A94E2F785
:1052A000842B8C93A3C0A5E3B0E0E5E3F0E080811C
:1052B000482F8B81282F30E081E090E0022E02C041
:1052C000880F991F0A94E2F7842B8C938FC0A2E376
:1052D000B0E0E2E3F0E08081482F8B81282F30E0BE
:1052E00081E090E0022E02C0880F991F0A94E2F735
:1052F000842B8C937BC08C81882309F074C08A81B5
:10530000282F30E03E832D838D819E818130910551
:1053100059F12D813E81223031052CF48D819E8101
:10532000009769F063C02D813E812230310589F1FB
:105330008D819E818330910509F440C057C0ABE355
:10534000B0E0EBE3F0E08081482F8B81282F30E044
:1053500081E090E0022E02C0880F991F0A94E2F7C4
:10536000809584238C9342C0A8E3B0E0E8E3F0E0AA
:105370008081482F8B81282F30E081E090E0022E41
:1053800002C0880F991F0A94E2F7809584238C93BA
:105390002DC0A5E3B0E0E5E3F0E08081482F8B81EC
:1053A000282F30E081E090E0022E02C0880F991F84
:1053B0000A94E2F7809584238C9318C0A2E3B0E0AE
:1053C000E2E3F0E08081482F8B81282F30E081E0FC
:1053D00090E0022E02C0880F991F0A94E2F7809590
:1053E00084238C9303C0198201C019828981289675
:1053F0000FB6F894DEBF0FBECDBFCF91DF910895F9
:10540000DF93CF93CDB7DEB727970FB6F894DEBF03
:105410000FBECDBF8A836B835D834C8381E089831C
:105420008A81843008F0A6C08B81883008F0A2C041
:105430008A81282F30E03F832E834E815F81413067
:105440005105C1F18E819F818230910534F42E8106
:105450003F812115310571F08EC04E815F81423050
:10546000510509F447C08E819F818330910509F46D
:1054700061C081C0E9E3F0E08081482F50E08B817A
:10548000282F30E081E090E002C0880F991F2A9514
:10549000E2F79A01282339238B81882F90E0A90114
:1054A00002C0559547958A95E2F7CA01EC81FD81C6
:1054B000808361C0E6E3F0E08081482F50E08B817B
:1054C000282F30E081E090E002C0880F991F2A95D4
:1054D000E2F79A01282339238B81882F90E0A901D4
:1054E00002C0559547958A95E2F7CA01EC81FD8186
:1054F000808341C0E3E3F0E08081482F50E08B815E
:10550000282F30E081E090E002C0880F991F2A9593
:10551000E2F79A01282339238B81882F90E0A90193
:1055200002C0559547958A95E2F7CA01EC81FD8145
:10553000808321C0E0E3F0E08081482F50E08B8140
:10554000282F30E081E090E002C0880F991F2A9553
:10555000E2F79A01282339238B81882F90E0A90153
:1055600002C0559547958A95E2F7CA01EC81FD8105
:10557000808301C01982898127960FB6F894DEBF17
:105580000FBECDBFCF91DF910895DF93CF9300D0B1
:1055900000D00F92CDB7DEB78A836B8381E0898319
:1055A0008B81883008F06FC08A81282F30E03D83DE
:1055B0002C838C819D818130910549F12C813D8125
:1055C000223031052CF48C819D81009761F05CC004
:1055D0002C813D812230310571F18C819D81833098
:1055E0009105E9F151C0ABE3B0E0EBE3F0E080817D
:1055F000482F8B81282F30E081E090E0022E02C0FE
:10560000880F991F0A94E2F784278C933DC0A8E382
:10561000B0E0E8E3F0E08081482F8B81282F30E074
:1056200081E090E0022E02C0880F991F0A94E2F7F1
:1056300084278C9329C0A5E3B0E0E5E3F0E0808106
:10564000482F8B81282F30E081E090E0022E02C0AD
:10565000880F991F0A94E2F784278C9315C0A2E360
:10566000B0E0E2E3F0E08081482F8B81282F30E02A
:1056700081E090E0022E02C0880F991F0A94E2F7A1
:1056800084278C9301C0198289810F900F900F900D
:105690000F900F90CF91DF910895DF93CF9300D0BB
:1056A00000D000D0CDB7DEB78A836B834C8381E016
:1056B00089838A81843008F03EC18B81883008F06C
:1056C0003AC18A81282F30E03E832D838D819E81CF
:1056D0008130910509F45DC02D813E812230310574
:1056E0002CF48D819E81009771F026C12D813E8121
:1056F0002230310509F493C08D819E81833091055C
:1057000009F4D3C019C18C81813071F5A0E5B0E0F6
:10571000E0E5F0E080818B7F8C93AAE3B0E0EAE3E0
:10572000F0E08081482F8B81282F30E081E090E0ED
:1057300002C0880F991F2A95E2F7809584238C93E5
:10574000ABE3B0E0EBE3F0E08081482F8B81282FC2
:1057500030E081E090E0022E02C0880F991F0A9489
:10576000E2F7842B8C93E8C0ABE3B0E0EBE3F0E02E
:105770008081482F8B81282F30E081E090E0022E3D
:1057800002C0880F991F0A94E2F7809584238C93B6
:10579000D3C08C81813071F5A0E5B0E0E0E5F0E0A8
:1057A00080818B7F8C93A7E3B0E0E7E3F0E080811A
:1057B000482F8B81282F30E081E090E002C0880FD5
:1057C000991F2A95E2F7809584238C93A8E3B0E093
:1057D000E8E3F0E08081482F8B81282F30E081E0E2
:1057E00090E0022E02C0880F991F0A94E2F7842BE2
:1057F0008C93A2C0A8E3B0E0E8E3F0E08081482FFA
:105800008B81282F30E081E090E0022E02C0880FCB
:10581000991F0A94E2F7809584238C938DC08C8124
:10582000813071F5A0E5B0E0E0E5F0E080818B7FAC
:105830008C93A4E3B0E0E4E3F0E08081482F8B8117
:10584000282F30E081E090E002C0880F991F2A9550
:10585000E2F7809584238C93A5E3B0E0E5E3F0E0E4
:105860008081482F8B81282F30E081E090E0022E4C
:1058700002C0880F991F0A94E2F7842B8C935CC0B6
:10588000A5E3B0E0E5E3F0E08081482F8B81282F8D
:1058900030E081E090E0022E02C0880F991F0A9448
:1058A000E2F7809584238C9347C08C81813071F519
:1058B000A0E5B0E0E0E5F0E080818B7F8C93A1E390
:1058C000B0E0E1E3F0E08081482F8B81282F30E0C9
:1058D00081E090E002C0880F991F2A95E2F7809539
:1058E00084238C93A2E3B0E0E2E3F0E08081482FD0
:1058F0008B81282F30E081E090E0022E02C0880FDB
:10590000991F0A94E2F7842B8C9316C0A2E3B0E0AF
:10591000E2E3F0E08081482F8B81282F30E081E0A6
:1059200090E0022E02C0880F991F0A94E2F780953A
:1059300084238C9301C01982898126960FB6F8942E
:10594000DEBF0FBECDBFCF91DF910895DF93CF9320
:1059500000D000D00F92CDB7DEB78A836B8381E091
:1059600089838A81843008F063C08B818295807F2F
:105970008B838A81282F30E03D832C838C819D810D
:105980008130910529F12C813D81223031052CF4A3
:105990008C819D81009761F04CC02C813D8122302B
:1059A000310531F18C819D818330910589F141C0B0
:1059B000ABE3B0E0EBE3F0E080818F708C93ABE37E
:1059C000B0E0EBE3F0E090818B81892B8C9331C0C8
:1059D000A8E3B0E0E8E3F0E080818F708C93A8E367
:1059E000B0E0E8E3F0E090818B81892B8C9321C0BB
:1059F000A5E3B0E0E5E3F0E080818F708C93A5E350
:105A0000B0E0E5E3F0E090818B81892B8C9311C0AD
:105A1000A2E3B0E0E2E3F0E080818F708C93A2E338
:105A2000B0E0E2E3F0E090818B81892B8C9301C0A0
:105A3000198289810F900F900F900F900F90CF9146
:105A4000DF910895DF93CF9300D000D00F92CDB7B0
:105A5000DEB78A836B8381E089838A818430A8F5ED
:105A60008A81282F30E03D832C838C819D81813079
:105A70009105D1F02C813D81223031052CF48C81AF
:105A80009D81009761F01FC02C813D81223031053E
:105A900081F08C819D818330910581F014C0EAE30F
:105AA000F0E08B81808312C0E7E3F0E08B8180839C
:105AB0000DC0E4E3F0E08B81808308C0E1E3F0E017
:105AC0008B81808303C0198201C0198289810F9064
:105AD0000F900F900F900F90CF91DF910895DF936B
