:100000000C942A000C94890E0C94B60E0C94E30EFA
:100010000C9447000C9447000C94EB080C94470098
:100020000C9447000C9447000C94E30A0C947B0A50
:100030000C94E30B0C9447000C9447000C9447007D
:100040000C9447000C9447000C9447000C94470014
:100050000C94470011241FBECFE5D8E0DEBFCDBF12
:1000600011E0A0E6B0E0E2E7FBE402C005900D92EB
:10007000A237B107D9F711E0A2E7B1E001C01D92A4
:10008000A53BB107E1F70E94CB1D0C94B7250C945A
:100090000000EF92FF920F931F937B018C0120E0F1
:1000A00030E040E05FE40E94490388238CF0C801FF
:1000B000B70120E030E040E05FE40E94C1010E940F
:1000C000A9039B01AC01205030404040504806C07D
:1000D000C801B7010E94A9039B01AC01B901CA0183
:1000E0001F910F91FF90EF900895A0E0B0E0EBE733
:1000F000F0E00C943225DC012B01FA019C91923046
:1001000008F439C1EB018881823008F433C194309E
:1001100069F4843009F02FC111969C91119789815F
:10012000981709F428C1AEE2B1E025C1843009F482
:1001300021C18230A9F4923009F01DC19A01AD01AC
:1001400088E0EA010990AE01E90109929E0181501F
:10015000C1F7E201898111969C918923818308C1AD
:10016000923009F407C112962D903C901397EB0141
:100170008A819B811496AD90BD90CD90DC901797AD
:10018000EC80FD800E811F819101281B390BB90184
:1001900037FF04C066277727621B730B6032710537
:1001A0000CF061C0121613066CF537014801062EDB
:1001B00004C096948794779467940A94D2F721E0C8
:1001C00030E040E050E004C0220F331F441F551FB1
:1001D0006A95D2F721503040404050402E213F21B7
:1001E00040235123211531054105510521F021E01E
:1001F00030E040E050E079018A01E628F72808293C
:1002000019293CC0232BD1F1260E371E350146019A
:10021000062E04C096948794779467940A94D2F734
:1002200021E030E040E050E004C0220F331F441FC3
:10023000551F6A95D2F721503040404050402A2146
:100240003B214C215D21211531054105510521F04E
:1002500021E030E040E050E059016A01A628B728CB
:10026000C828D9280BC0821593052CF01C01AA249C
:10027000BB24650103C0EE24FF24870111969C91E5
:10028000D20111968C91981709F445C0992339F041
:10029000A80197012A193B094C095D0906C0A6016E
:1002A00095012E193F09400B510B57FD08C01182D3
:1002B0003382228224833583468357831DC081E0A5
:1002C00081833382228288279927DC01821B930B4A
:1002D000A40BB50B84839583A683B7830DC0220F2F
:1002E000331F441F551F24833583468357838281E0
:1002F000938101979383828324813581468157813D
:10030000DA01C9010197A109B1098F5F9F4FAF4F72
:10031000BF4328F30BC0918333822282EA0CFB1C7B
:100320000C1D1D1DE482F5820683178383E0808304
:10033000248135814681578157FF1AC0C901AA27F8
:1003400097FDA095BA2F81709070A070B0705695EF
:10035000479537952795822B932BA42BB52B848318
:100360009583A683B7838281938101969383828349
:10037000DF0101C0D201CD01CDB7DEB7E2E10C94BF
:100380004E25A0E2B0E0E7ECF1E00C943E25698355
:100390007A838B839C832D833E834F835887E9E048
:1003A000EE2EF12CEC0EFD1ECE010196B7010E943F
:1003B000D2048E010F5E1F4FCE010596B8010E9438
:1003C000D2048A8991E089278A8BC701B801AE01DE
:1003D000475E5F4F0E9475000E94FD03A096E6E015
:1003E0000C945A25A0E2B0E0E8EFF1E00C943E2531
:1003F00069837A838B839C832D833E834F835887C5
:10040000F9E0EF2EF12CEC0EFD1ECE010196B701A6
:100410000E94D2048E010F5E1F4FCE010596B801D7
:100420000E94D204C701B801AE01475E5F4F0E942F
:1004300075000E94FD03A096E6E00C945A25A0E208
:10044000B0E0E5E2F2E00C94322569837A838B8395
:100450009C832D833E834F835887CE010196BE0136
:10046000675F7F4F0E94D204CE010596BE016F5E8A
:100470007F4F0E94D2049985923088F0898982301A
:10048000C8F0943019F4823051F404C0843029F457
:10049000923081F48EE291E0C6C0923049F420E0BF
:1004A0009A858A89981321E02A87CE010996BBC0D4
:1004B000823049F420E09A858A89981321E02A8BBA
:1004C000CE014196B0C02D843E844F8458886D88FB
:1004D0007E888F88988CEE24FF248701AA24BB2471
:1004E000650140E050E060E070E0E0E0F0E0C10174
:1004F00081709070892BE9F0E60CF71C081D191D1E
:100500009A01AB012A0D3B1D4C1D5D1D80E090E062
:10051000A0E0B0E0E614F7040805190520F481E036
:1005200090E0A0E0B0E0BA01A901480F591F6A1F8E
:100530007B1FAA0CBB1CCC1CDD1C97FE08C081E0F5
:1005400090E0A0E0B0E0A82AB92ACA2ADB2A3196B6
:10055000E032F10549F0660C771C881C991C569412
:10056000479437942794C3CFFA85EA892B893C892D
:100570008B859C85280F391F2E5F3F4F17C0CA01FE
:1005800081709070892B61F016950795F794E79428
:1005900080E090E0A0E0B0E8E82AF92A0A2B1B2BC3
:1005A00076956795579547952F5F3F4F77FDE7CF36
:1005B0000CC0440F551F661F771F17FD4160EE0CDE
:1005C000FF1C001F111F21503040403090E05907A0
:1005D00090E0690790E4790760F32B8F3C8FDB0193
:1005E000CA018F779070A070B07080349105A1051A
:1005F000B10561F447FD0AC0E114F10401051105DC
:1006000029F0405C5F4F6F4F7F4F40781A8EFE1786
:1006100011F081E08A8F4D8F5E8F6F8F78A383E01A
:10062000898FCE0149960E94FD03A096E2E10C94C9
:100630004E25A8E1B0E0EFE1F3E00C943E2569839C
:100640007A838B839C832D833E834F83588789E0F5
:10065000E82EF12CEC0EFD1ECE010196B7010E9492
:10066000D2048E010F5E1F4FCE010596B8010E9485
:10067000D2048985823040F08989823028F0C70110
:10068000B8010E944A0501C08FEF6896E6E00C941D
:100690005A25A8E1B0E0EFE4F3E00C943E2569832D
:1006A0007A838B839C832D833E834F83588789E095
:1006B000E82EF12CEC0EFD1ECE010196B7010E9432
:1006C000D2048E010F5E1F4FCE010596B8010E9425
:1006D000D2048985823040F08989823028F0C701B0
:1006E000B8010E944A0501C08FEF6896E6E00C94BD
:1006F0005A25A8E1B0E0EFE7F3E00C943E256983CA
:100700007A838B839C832D833E834F83588789E034
:10071000E82EF12CEC0EFD1ECE010196B7010E94D1
:10072000D2048E010F5E1F4FCE010596B8010E94C4
:10073000D2048985823040F08989823028F0C7014F
:10074000B8010E944A0501C081E06896E6E00C9479
:100750005A25ACE0B0E0EFEAF3E00C94422569835F
:100760007A838B839C83CE010196BE016B5F7F4FA2
:100770000E94D2048D81823061F1823050F1843048
:1007800021F48E81882351F12EC02F81388537FDC9
:1007900020C06E812F3131051CF06623F9F023C093
:1007A0008EE190E0821B930B29853A854B855C8511
:1007B00004C056954795379527958A95D2F76623B5
:1007C000B1F050954095309521953F4F4F4F5F4F79
:1007D0000EC020E030E040E050E009C02FEF3FEFD6
:1007E0004FEF5FE704C020E030E040E050E8B9019F
:1007F000CA012C96E2E00C945E25DF92EF92FF9204
:100800000F931F93FC01E480F58006811781D1804E
:100810008081823048F480E090E0A0E1B0E0E82AF6
:10082000F92A0A2B1B2BA5C0843009F49FC0823003
:1008300021F4EE24FF24870105C0E114F104010531
:10084000110519F4E0E0F0E096C0628173819FEF3A
:10085000623879070CF05BC022E83FEF261B370BAC
:100860002A3131052CF020E030E040E050E02AC091
:10087000B801A701022E04C0769567955795479554
:100880000A94D2F781E090E0A0E0B0E004C0880FC5
:10089000991FAA1FBB1F2A95D2F70197A109B10979
:1008A0008E219F21A023B1230097A105B10521F03E
:1008B00081E090E0A0E0B0E09A01AB01282B392B59
:1008C0004A2B5B2BDA01C9018F779070A070B07052
:1008D00080349105A105B10539F427FF09C0205CDA
:1008E0003F4F4F4F5F4F04C0215C3F4F4F4F5F4F13
:1008F000E0E0F0E02030A0E03A07A0E04A07A0E402
:100900005A0710F0E1E0F0E079018A0127C0603871
:10091000710564F5FB01E158FF4FD801C7018F77DE
:100920009070A070B07080349105A105B10539F4C4
:10093000E7FE0DC080E490E0A0E0B0E004C08FE3EB
:1009400090E0A0E0B0E0E80EF91E0A1F1B1F17FFA1
:1009500005C016950795F794E794319687E01695AC
:100960000795F794E7948A95D1F705C0EE24FF2404
:100970008701EFEFF0E06E2F679566276795902F60
:100980009F77D794DD24D7948E2F8695492F462BB9
:10099000582F5D29B701CA011F910F91FF90EF9069
:1009A000DF900895FC01DB01408151812281622F9B
:1009B0006F7770E0221F2227221F9381892F880FD3
:1009C000822B282F30E0991F9927991F11969C930D
:1009D000119721153105A9F54115510561057105DD
:1009E00011F482E037C082E89FEF13969C938E93B8
:1009F00012979A01AB0167E0220F331F441F551F66
:100A00006A95D1F783E08C930DC0220F331F441FEA
:100A1000551F12968D919C911397019713969C9355
:100A20008E931297203080E0380780E0480780E4FA
:100A3000580758F314962D933D934D935C93179755
:100A400008952F3F310579F4411551056105710570
:100A500019F484E08C93089564FF03C081E08C93C3
:100A600012C01C9210C02F57304013963C932E9307
:100A7000129783E08C9387E0440F551F661F771F02
:100A80008A95D1F7706414964D935D936D937C9322
:100A9000179708951F93DC01FB019C91923008F495
:100AA00047C08081823008F443C0943051F41196DD
:100AB0001C91843099F58181682F70E0611B710968
:100AC0003FC0843021F0923031F48230B9F181811D
:100AD000882389F12DC011961C9111978230F1F075
:100AE00081811817D9F412962D913C911397828128
:100AF00093818217930794F028173907BCF0149656
:100B00008D919D910D90BC91A02D248135814681C0
:100B10005781281739074A075B0718F4112341F05A
:100B20000AC082179307A407B50740F4112319F0F0
:100B300061E070E005C06FEF7FEF02C060E070E041
:100B4000CB011F910895DF93CF9300D000D0CDB794
:100B5000DEB79A8389837C836B838B819C8190939E
:100B6000730180937201EB81FC818185E981FA81B7
:100B70008283EB81FC8181858823A9F4EB81FC8150
:100B8000218132814381548180E291EAA7E0B0E083
:100B9000BC01CD010E941025DA01C9018150E98113
:100BA000FA81808314C0EB81FC81218132814381F1
:100BB000548180E492E4AFE0B0E0BC01CD010E943A
:100BC0001025DA01C9018150E981FA818083E98128
:100BD000FA819789EB81FC818681892BE981FA81F1
:100BE000878BEB81FC8185818130B1F4E981FA81C9
:100BF00087898D7FE981FA81878BE981FA818789ED
:100C00008B7FE981FA81878BE981FA8181818B7FF2
:100C1000E981FA8181836BC0EB81FC81858182301F
:100C2000B1F4E981FA8187898260E981FA81878B51
:100C3000E981FA8187898B7FE981FA81878BE98154
:100C4000FA8181818B7FE981FA81818350C0EB81B8
:100C5000FC8185818330B1F4E981FA8187898D7FB8
:100C6000E981FA81878BE981FA8187898460E9814A
:100C7000FA81878BE981FA8181818B7FE981FA8111
:100C8000818335C0EB81FC8185818430B1F4E981B9
:100C9000FA8187898260E981FA81878BE981FA810B
:100CA00087898460E981FA81878BE981FA81818172
:100CB0008B7FE981FA8181831AC0EB81FC81858178
:100CC0008530A9F4E981FA8187898260E981FA8116
:100CD000878BE981FA8187898460E981FA81878B32
:100CE000E981FA8181818460E981FA818183E981E6
:100CF000FA819789EB81FC818781892BE981FA81CF
:100D0000878BE981FA819181EB81FC818085892B38
:100D1000E981FA818183E981FA819181EB81FC810A
:100D20008081892BE981FA8181830F900F900F9048
:100D30000F90CF91DF910895DF93CF930F92CDB7AE
:100D4000DEB78983EBE2F0E080818295869587703B
:100D5000882F90E0817090700097A1F3ECE2F0E0B2
:100D6000898180830F90CF91DF910895DF93CF9396
:100D7000CDB7DEB7EBE2F0E080818823DCF7ECE270
:100D8000F0E08081CF91DF910895DF93CF9300D081
:100D900000D000D0CDB7DEB76B837C838D839E837C
:100DA000CE0103969A838983E981FA8180810E942A
:100DB0009C0689819A81FC01319680810E949C0663
:100DC00089819A81FC01329680810E949C068981EA
:100DD0009A81FC01339680810E949C0626960FB66C
:100DE000F894DEBF0FBECDBFCF91DF9108950F9372
:100DF0001F93DF93CF9300D000D000D0CDB7DEB7E4
:100E0000CE0103969A8389830E94B606E981FA810E
:100E1000808389819A818C010F5F1F4F0E94B606E3
:100E2000F801808389819A818C010E5F1F4F0E9497
:100E3000B606F801808389819A818C010D5F1F4F6E
:100E40000E94B606F80180838B819C81AD81BE81B2
:100E5000BC01CD0126960FB6F894DEBF0FBECDBF04
:100E6000CF91DF911F910F910895DF93CF9300D021
:100E70000F92CDB7DEB79B838A8319820EC089811A
:100E8000282F30E08A819B81FC01E20FF31F8081D3
:100E90000E949C0689818F5F89838981282F30E099
:100EA0008A819B81FC01E20FF31F8081882339F73F
:100EB0008DE00E949C060F900F900F90CF91DF91D4
:100EC00008950F931F93DF93CF9300D00F92CDB768
:100ED000DEB79B838A8319828981282F30E08A813B
:100EE0009B818C01020F131F0E94B606F8018083BC
:100EF0000FC089818F5F89838981282F30E08A81A3
:100F00009B818C01020F131F0E94B606F80180839B
:100F10008981282F30E08A819B81FC01E20FF31F39
:100F200080818D3031F78981282F30E08A819B8143
:100F3000FC01E20FF31F10820F900F900F90CF91E2
:100F4000DF911F910F910895DF93CF9300D00F92FF
:100F5000CDB7DEB79A838983EBE2F0E08081882306
:100F60004CF4ECE2F0E08081E981FA81808381E059
:100F70008B8301C01B828B810F900F900F90CF91BC
:100F8000DF910895DF93CF930F92CDB7DEB78983BA
:100F9000ECE2F0E0898180830F90CF91DF9108959A
:100FA000DF93CF93CDB7DEB7ECE2F0E08081CF9155
:100FB000DF910895DF93CF9300D0CDB7DEB79A834A
:100FC000898380913601813039F4E981FA81808109
:100FD0000E94C207109236010F900F90CF91DF91BF
:100FE0000895DF93CF9300D0CDB7DEB79A8389837E
:100FF000209174013091750180913701882F90E024
:10100000F901E80FF91F80818130A1F0209174016E
:101010003091750180913701882F90E0F901E80F38
:10102000F91F80810E94C207809137018F5F8093F2
:10103000370106C081E08093370181E0809336015B
:101040000F900F90CF91DF910895DF93CF93CDB79D
:10105000DEB7ECE4F0E011821082AFE4B0E0EFE440
:10106000F0E080818E7F8C93AFE4B0E0EFE4F0E0BD
:1010700080818D7F8C93AEE4B0E0EEE4F0E080817F
:10108000877F8C93AEE4B0E0EEE4F0E080818F7E69
:101090008C93AEE4B0E0EEE4F0E080818E7F8C9340
:1010A000AEE4B0E0EEE4F0E0808182608C93AEE4E8
:1010B000B0E0EEE4F0E080818B7F8C93CF91DF9104
:1010C0000895DF93CF93CDB7DEB7ECE4F0E0118263
:1010D0001082AFE4B0E0EFE4F0E080818E7F8C938B
:1010E000AFE4B0E0EFE4F0E080818D7F8C93AEE47C
:1010F000B0E0EEE4F0E08081877F8C93AEE4B0E076
:10110000EEE4F0E080818F7E8C93A9E5B0E0E9E524
:10111000F0E0808180628C93AEE4B0E0EEE4F0E039
:1011200080818E7F8C93AEE4B0E0EEE4F0E08081CD
:1011300082608C93AEE4B0E0EEE4F0E080818B7FDF
:101140008C93CF91DF910895DF93CF9300D00F92CE
:10115000CDB7DEB789838981282F30E03B832A838E
:101160008A819B81009769F02A813B81213031057A
:1011700079F4AEE4B0E0EEE4F0E080818F7B8C9314
:1011800007C0AEE4B0E0EEE4F0E0808180648C93D0
:101190000F900F900F90CF91DF910895DF93CF9331
:1011A000CDB7DEB7E6E4F0E080819181CF91DF91A9
:1011B0000895DF93CF9300D0CDB7DEB79A838983AC
:1011C00089819A8190938D0180938C010F900F906B
:1011D000CF91DF9108951F920F920FB60F921124B5
:1011E0002F933F934F935F936F937F938F939F932F
:1011F000AF93BF93EF93FF93DF93CF93CDB7DEB75A
:10120000E0918C01F0918D010995CF91DF91FF91D3
:10121000EF91BF91AF919F918F917F916F915F916E
:101220004F913F912F910F900FBE0F901F901895E7
:10123000DF93CF93CDB7DEB7ECE4F0E0808191810E
:10124000CF91DF910895DF93CF93CDB7DEB7ECE474
:10125000F0E011821082CF91DF910895DF93CF9358
:1012600000D0CDB7DEB79A838983ECE4F0E0118239
:101270001082AFE4B0E0EFE4F0E080818E7F8C93E9
:10128000AFE4B0E0EFE4F0E0808182608C93AEE404
:10129000B0E0EEE4F0E0808188608C93AEE4B0E0F2
:1012A000EEE4F0E0808180618C93AFE4B0E0EFE4A5
:1012B000F0E080818F738C93AFE4B0E0EFE4F0E076
:1012C000808180688C93AFE4B0E0EFE4F0E080814F
:1012D0008F7C8C93AFE4B0E0EFE4F0E0808180633A
:1012E0008C93E6E4F0E089819A8191838083AEE477
:1012F000B0E0EEE4F0E080818E7F8C93AEE4B0E06D
:10130000EEE4F0E0808182608C93AEE4B0E0EEE445
:10131000F0E080818B7F8C930F900F90CF91DF91C5
:101320000895DF93CF9300D000D00F92CDB7DEB7F2
:1013300089837B836A838981282F30E03D832C83D6
:101340008C819D81009731F02C813D8121303105C8
:1013500041F00DC0EAE4F0E08A819B8191838083B3
:1013600006C0E8E4F0E08A819B81918380830F903E
:101370000F900F900F900F90CF91DF910895DF9312
:10138000CF93CDB7DEB7A3E5B0E0E3E5F0E0808131
:101390008F7B8C93A3E5B0E0E3E5F0E0808188608B
:1013A0008C93A9E5B0E0E9E5F0E0808182608C9360
:1013B000CF91DF910895DF93CF9300D000D00F92AB
:1013C000CDB7DEB76A837B838C839D838FEF898360
:1013D00032C08981282F30E040E050E08A819B8133
:1013E000AC81BD81BC01CD010E941025DC01CB0187
:1013F0000097A105B105E1F4ECE5F0E08981808377
:101400008981282F30E040E050E08A819B81AC81C7
:10141000BD81BC01CD010E941025DA01C901809374
:10142000940190939501A0939601B093970106C003
:101430008981815089838981882359F6A3E5B0E0A9
:10144000E3E5F0E080818E7F8C93A3E5B0E0E3E5F7
:10145000F0E0808182608C93A3E5B0E0E3E5F0E00A
:1014600080818B7F8C930F900F900F900F900F9037
:10147000CF91DF910895DF93CF93CDB7DEB7A3E58A
:10148000B0E0E3E5F0E080818E7F8C93A3E5B0E0EF
:10149000E3E5F0E080818D7F8C93A3E5B0E0E3E5A8
:1014A000F0E080818B7F8C93CF91DF910895DF9363
:1014B000CF9300D0CDB7DEB79A83898389819A8193
:1014C00090939301809392010F900F90CF91DF91B1
:1014D0000895DF93CF9300D0CDB7DEB79A83898389
:1014E00089819A8190939901809398010F900F9030
:1014F000CF91DF9108951F920F920FB60F92112492
:101500002F933F934F935F936F937F938F939F930B
:10151000AF93BF93EF93FF93DF93CF93CDB7DEB736
:1015200020917601309177014091780150917901B5
:101530008091940190919501A0919601B0919701AD
:10154000281739074A075B07C1F4E0919201F0912F
:10155000930109951092760110927701109278010B
:1015600010927901E2E5F0E080918E0190918F0177
:10157000A0919001B091910180838091760190912A
:101580007701A0917801B09179010196A11DB11D5B
:101590008093760190937701A0937801B0937901BD
:1015A000CF91DF91FF91EF91BF91AF919F918F917B
:1015B0007F916F915F914F913F912F910F900FBE4F
:1015C0000F901F9018951F920F920FB60F92112433
:1015D0002F933F934F935F936F937F938F939F933B
:1015E000AF93BF93EF93FF93DF93CF93CDB7DEB766
:1015F00020917A0130917B0140917C0150917D01D5
:101600008091940190919501A0919601B0919701DC
:10161000281739074A075B0769F4E0919801F091B0
:101620009901099510927A0110927B0110927C0128
:1016300010927D0180917A0190917B01A0917C01B3
:10164000B0917D010196A11DB11D80937A01909307
:101650007B01A0937C01B0937D01CF91DF91FF913D
:10166000EF91BF91AF919F918F917F916F915F911A
:101670004F913F912F910F900FBE0F901F90189593
:10168000DF93CF93CDB7DEB7ADE2B0E0EDE2F0E0AF
:10169000808180618C93ADE2B0E0EDE2F0E080818A
:1016A0008C7F8C93ADE2B0E0EDE2F0E080818C9332
:1016B000AEE2B0E0EEE2F0E080818E7F8C93AEE2AD
:1016C000B0E0EEE2F0E080818C93ADE2B0E0EDE2DC
:1016D000F0E08081877F8C93ADE2B0E0EDE2F0E056
:1016E00080818B7F8C93ADE2B0E0EDE2F0E0808111
:1016F0008F7D8C93ADE2B0E0EDE2F0E0808180641C
:101700008C93CF91DF910895DF93CF9300D00F9208
:10171000CDB7DEB789837B836A838A819B810097FB
:1017200079F0EFE2F0E089818083EEE2F0E0808101
:101730008823DCF7EFE2F0E08081EA81FB8180839F
:101740000F900F900F90CF91DF910895DF93CF937B
:10175000CDB7DEB7EEE2F0E080818823DCF7EFE280
:10176000F0E08081CF91DF910895DF93CF93CDB7E3
:10177000DEB7ADE2B0E0EDE2F0E0808180688C930E
:10178000CF91DF910895DF93CF93CDB7DEB7ADE270
:10179000B0E0EDE2F0E080818F778C93CF91DF9124
:1017A0000895DF93CF9300D0CDB7DEB79A838983B6
:1017B00089819A8190937F0180937E010F900F9091
:1017C000CF91DF910895DF93CF93CDB7DEB78091AE
:1017D0007E0190917F01009729F0E0917E01F091C8
:1017E0007F010995CF91DF9108950F931F93DF93A8
:1017F000CF9300D0CDB7DEB79A838983A6E5B0E05A
:10180000E6E5F0E0808184608C93A1E2B0E0E1E263
:10181000F0E080818E7F8C93A1E2B0E0E1E2F0E025
:1018200080818D7F8C9300E210E089819A81CC01C8
:10183000A0E0B0E020EE3EE548EF5FEFBC01CD0157
:101840000E94F124DC01CB0180959095A095B09584
:10185000880F991FAA1FBB1FF80180830F900F905C
:10186000CF91DF911F910F910895DF93CF93CDB763
:10187000DEB7A6E5B0E0E6E5F0E0808184608C9319
:10188000E2E2F0E084E28083CF91DF910895DF937C
:10189000CF93CDB7DEB7A6E5B0E0E6E5F0E0808116
:1018A000846A8C93E6E5F0E080818823DCF7E1E24E
:1018B000F0E08081887FCF91DF910895DF93CF930F
:1018C000CDB7DEB7A6E5B0E0E6E5F0E080818B7F3E
:1018D0008C93A6E5B0E0E6E5F0E08081846A8C9325
:1018E000E6E5F0E080818823DCF7E1E2F0E080814A
:1018F000887FCF91DF910895DF93CF9300D0CDB74C
:10190000DEB789836A83E3E2F0E08981882F90E083
:10191000880F991F982F8A81892B8083A6E5B0E0D4
:10192000E6E5F0E0808184688C93E6E5F0E0808174
:101930008823DCF7E1E2F0E08081887F0F900F9050
:10194000CF91DF910895DF93CF930F92CDB7DEB79C
:101950008983E3E2F0E089818083A6E5B0E0E6E5F3
:10196000F0E0808184688C93E6E5F0E08081882354
:10197000DCF7E1E2F0E08081887F0F90CF91DF918A
:101980000895DF93CF93CDB7DEB7A6E5B0E0E6E5E7
:10199000F0E0808184698C93A6E5B0E0E6E5F0E0B4
:1019A00080818F7D8C93E1E2F0E08081887FCF9110
:1019B000DF910895DF93CF93CDB7DEB7A6E5B0E012
:1019C000E6E5F0E08081846C8C93E6E5F0E08081D0
:1019D0008823DCF7E3E2F0E08081CF91DF91089586
:1019E000DF93CF93CDB7DEB7A6E5B0E0E6E5F0E054
:1019F000808184688C93E6E5F0E080818823DCF7C1
:101A0000E3E2F0E08081CF91DF910895DF93CF93FF
:101A1000CDB7DEB728970FB6F894DEBF0FBECDBFA7
:101A20008C837E836D834F830E94470C8B838B81D5
:101A3000883019F08B81888734C08C8160E00E94E7
:101A40007C0C8B838B81883119F08B81888729C02E
:101A50001A82198213C029813A818D819E81FC01ED
:101A6000E20FF31F80810E94A30C8B838B8188324D
:101A700069F489819A8101969A8389838F81282FBD
:101A800030E089819A81821793072CF30E94C10C60
:101A9000A6E5B0E0E6E5F0E080818F7D8C938B8158
:101AA0008887888528960FB6F894DEBF0FBECDBF15
:101AB000CF91DF910895DF93CF93CDB7DEB7AFE538
:101AC000B0E0EFE5F0E0808180688C93CF91DF910A
:101AD0000895DF93CF93CDB7DEB7AFE5B0E0EFE584
:101AE000F0E080818F778C93CF91DF910895DF9321
:101AF000CF9300D000D0CDB7DEB789836A838981C8
:101B0000282F30E03C832B838B819C818230910590
:101B1000D9F02B813C812330310569F18B819C8187
:101B20008130910509F044C0A5E5B0E0E5E5F0E0BD
:101B300080818C7F8C93A5E5B0E0E5E5F0E09081B5
:101B40008A81892B8C9334C0A5E5B0E0E5E5F0E00F
:101B50008081837F8C93A5E5B0E0E5E5F0E08081AE
:101B6000282F8A81882F90E0880F991F880F991F4E
:101B7000822B8C931DC0A4E5B0E0E4E5F0E0808109
:101B80008F7B8C93A4E5B0E0E4E5F0E08081282F22
:101B90008A81882F90E081709070002496958795B7
:101BA0000794969587950794982F802D822B8C9378
:101BB0000F900F900F900F90CF91DF910895DF93CA
:101BC000CF9300D00F92CDB7DEB789838981282FBC
:101BD00030E03B832A838A819B818230910591F09A
:101BE0002A813B8123303105A9F08A819B81813094
:101BF0009105B9F4ABE5B0E0EBE5F0E080818064FD
:101C00008C930FC0ABE5B0E0EBE5F0E0808180683D
:101C10008C9307C0ABE5B0E0EBE5F0E0808180623B
:101C20008C930F900F900F90CF91DF910895DF93D9
:101C3000CF9300D00F92CDB7DEB789838981282F4B
:101C400030E03B832A838A819B818230910591F029
:101C50002A813B8123303105A9F08A819B81813023
:101C60009105B9F4ABE5B0E0EBE5F0E080818F7B66
:101C70008C930FC0ABE5B0E0EBE5F0E080818F77AF
:101C80008C9307C0ABE5B0E0EBE5F0E080818F7DA1
:101C90008C930F900F900F90CF91DF910895DF9369
:101CA000CF9300D000D00F92CDB7DEB789837B836E
:101CB0006A838981282F30E03D832C838C819D812C
:101CC0008230910589F02C813D812330310599F0D6
:101CD0008C819D8181309105A1F48A819B819093B3
:101CE0009B0180939A010DC08A819B8190939D01F5
:101CF00080939C0106C08A819B8190939F01809371
:101D00009E010F900F900F900F900F90CF91DF9149
:101D100008951F920F920FB60F9211242F933F93A5
:101D20004F935F936F937F938F939F93AF93BF93E3
:101D3000EF93FF93DF93CF93CDB7DEB7E0919A0196
:101D4000F0919B010995CF91DF91FF91EF91BF91A8
:101D5000AF919F918F917F916F915F914F913F9143
:101D60002F910F900FBE0F901F9018951F920F92FA
:101D70000FB60F9211242F933F934F935F936F935E
:101D80007F938F939F93AF93BF93EF93FF93DF93D3
:101D9000CF93CDB7DEB7E0919C01F0919D010995FD
:101DA000CF91DF91FF91EF91BF91AF919F918F9173
:101DB0007F916F915F914F913F912F910F900FBE47
:101DC0000F901F9018951F920F920FB60F9211242B
:101DD0002F933F934F935F936F937F938F939F9333
:101DE000AF93BF93EF93FF93DF93CF93CDB7DEB75E
:101DF000E0919E01F0919F010995CF91DF91FF91B4
:101E0000EF91BF91AF919F918F917F916F915F9172
:101E10004F913F912F910F900FBE0F901F901895EB
:101E2000DF93CF93CDB7DEB728970FB6F894DEBF18
:101E30000FBECDBF89836A834B838B81813009F0CC
:101E400073C08981282F30E038872F838F81988550
:101E50008230910551F12F8138852330310534F4DA
:101E60008F8198858130910561F05BC02F81388525
:101E70002330310571F18F81988584309105E9F126
:101E800050C0ABE3B0E0EBE3F0E08081482F8A8103
:101E9000282F30E081E090E0022E02C0880F991FC9
:101EA0000A94E2F7842B8C93BEC0A8E3B0E0E8E389
:101EB000F0E08081482F8A81282F30E081E090E097
:101EC000022E02C0880F991F0A94E2F7842B8C938C
:101ED000AAC0A5E3B0E0E5E3F0E08081482F8A8165
:101EE000282F30E081E090E0022E02C0880F991F79
:101EF0000A94E2F7842B8C9396C0A2E3B0E0E2E36D
:101F0000F0E08081482F8A81282F30E081E090E046
:101F1000022E02C0880F991F0A94E2F7842B8C933B
:101F200082C09FEF9E8380C08B81882309F078C098
:101F30008981282F30E03D832C838C819D818230E4
:101F4000910561F12C813D812330310534F48C8180
:101F50009D818130910569F060C02C813D812330E5
:101F6000310589F18C819D818430910509F440C04F
:101F700054C0ABE3B0E0EBE3F0E08081482F8A810E
:101F8000282F30E081E090E0022E02C0880F991FD8
:101F90000A94E2F7809584238C9345C0A8E3B0E0CF
:101FA000E8E3F0E08081482F8A81282F30E081E04B
:101FB00090E0022E02C0880F991F0A94E2F78095E4
:101FC00084238C9330C0A5E3B0E0E5E3F0E08081AA
:101FD000482F8A81282F30E081E090E0022E02C055
:101FE000880F991F0A94E2F7809584238C931BC075
:101FF000A2E3B0E0E2E3F0E08081482F8A81282F5D
:1020000030E081E090E0022E02C0880F991F0A9410
:10201000E2F7809584238C9306C09FEF9E8304C0D3
:102020002FEF2E8301C01E828E8128960FB6F89462
:10203000DEBF0FBECDBFCF91DF910895DF93CF9369
:1020400000D000D00F92CDB7DEB78A836B838A8130
:10205000282F30E03D832C834C815D814230510537
:1020600041F18C819D818330910534F42C813D8137
:102070002130310561F053C04C815D814330510501
:1020800051F18C819D8184309105B9F148C0E9E31B
:10209000F0E08081282F30E08B81882F90E0A9012B
:1020A00002C0559547958A95E2F7CA0181708983E8
:1020B00038C0E6E3F0E08081282F30E08B81882F64
:1020C00090E0A90102C0559547958A95E2F7CA01AB
:1020D0008170898326C0E3E3F0E08081282F30E01F
:1020E0008B81882F90E0A90102C0559547958A956C
:1020F000E2F7CA018170898314C0E0E3F0E08081D7
:10210000282F30E08B81882F90E0A90102C05595DF
:1021100047958A95E2F7CA018170898302C08FEFE3
:10212000898389810F900F900F900F900F90CF911E
:10213000DF910895DF93CF93CDB7DEB728970FB621
:10214000F894DEBF0FBECDBF89836A834B838B813A
:10215000813009F073C08981282F30E038872F83C0
:102160008F8198858230910551F12F8138852330F8
:10217000310534F48F8198858130910561F05BC021
:102180002F8138852330310571F18F819885843016
:102190009105E9F150C0AAE3B0E0EAE3F0E0808104
:1021A000482F8A81282F30E081E090E0022E02C083
:1021B000880F991F0A94E2F7842B8C93BEC0A7E383
:1021C000B0E0E7E3F0E08081482F8A81282F30E0FB
:1021D00081E090E0022E02C0880F991F0A94E2F776
:1021E000842B8C93AAC0A4E3B0E0E4E3F0E0808108
:1021F000482F8A81282F30E081E090E0022E02C033
:10220000880F991F0A94E2F7842B8C9396C0A1E360
:10221000B0E0E1E3F0E08081482F8A81282F30E0B0
:1022200081E090E0022E02C0880F991F0A94E2F725
:10223000842B8C9382C09FEF9E8380C08B818823E8
:1022400009F078C08981282F30E03D832C838C8170
:102250009D818230910561F12C813D8123303105D2
:1022600034F48C819D818130910569F060C02C81AE
:102270003D812330310589F18C819D818430910528
:1022800009F440C054C0AAE3B0E0EAE3F0E0808182
:10229000482F8A81282F30E081E090E0022E02C092
:1022A000880F991F0A94E2F7809584238C9345C088
:1022B000A7E3B0E0E7E3F0E08081482F8A81282F90
:1022C00030E081E090E0022E02C0880F991F0A944E
:1022D000E2F7809584238C9330C0A4E3B0E0E4E37C
:1022E000F0E08081482F8A81282F30E081E090E063
:1022F000022E02C0880F991F0A94E2F7809584236A
:102300008C931BC0A1E3B0E0E1E3F0E08081482FB3
:102310008A81282F30E081E090E0022E02C0880FF1
:10232000991F0A94E2F7809584238C9306C09FEF4F
:102330009E8304C02FEF2E8301C01E828E812896BB
:102340000FB6F894DEBF0FBECDBFCF91DF910895D9
:10235000DF93CF9300D000D00F92CDB7DEB7898343
:102360006A838981282F30E03D832C838C819D8175
:1023700082309105D9F02C813D812330310534F430
:102380008C819D818130910561F01FC02C813D8140
:102390002330310581F08C819D818430910581F05D
:1023A00014C0EBE3F0E08A81808312C0E8E3F0E040
:1023B0008A8180830DC0E5E3F0E08A81808308C0D4
:1023C000E2E3F0E08A81808303C09FEF9B8301C03A
:1023D0001B828B810F900F900F900F900F90CF91D9
:1023E000DF910895DF93CF9300D000D00F92CDB747
:1023F000DEB789836A838981282F30E03D832C836F
:102400008C819D8182309105D9F02C813D812330D2
:10241000310534F48C819D818130910561F01FC0BC
:102420002C813D812330310581F08C819D81843068
:10243000910581F014C0EAE3F0E08A81808312C044
:10244000E7E3F0E08A8180830DC0E4E3F0E08A8175
:10245000808308C0E1E3F0E08A81808303C09FEFBE
:102460009B8301C01B828B810F900F900F900F9068
:102470000F90CF91DF910895DF93CF9300D0CDB728
:10248000DEB71A8219828A8180648A83E7E2F0E0EB
:102490008A81808389818360898389818068898337
:1024A000E6E2F0E0898180830F900F90CF91DF9179
:1024B0000895DF93CF930F92CDB7DEB78983A7E25C
:1024C000B0E0E7E2F0E08081807E8C93A7E2B0E0AC
:1024D000E7E2F0E090818981892B8C93A6E2B0E05D
:1024E000E6E2F0E0808180648C93E6E2F0E08081B7
:1024F00082958F70882F90E0817090700097A9F37B
:10250000A6E2B0E0E6E2F0E0808180618C93E4E254
:10251000F0E0808191810F90CF91DF910895DF935A
:10252000CF9300D0CDB7DEB71A8219821AC0898145
:102530009A81880F991FFC01E85CFE4F20818981F8
:102540009A81880F991FFC01E75CFE4F9081822FD2
:10255000692F41E00E949A1089819A8101969A839D
:10256000898389819A818430910508F30F900F90B7
:10257000CF91DF910895DF93CF930F92CDB7DEB760
:10258000809180018F5F80938001198230C08981A2
:10259000882F90E0880F991FFC01E85CFE4F408176
:1025A0008981882F90E0880F991FFC01E75CFE4F1E
:1025B000508180918001882F90E0FC01E05AFE4F0D
:1025C0008081282F30E08981882F90E0B90102C0F6
:1025D000759567958A95E2F7CB01982F9170842FB6
:1025E000652F492F0E94100F89818F5F8983898110
:1025F000843068F280918001883010F01092800160
:102600000F90CF91DF910895DF93CF930F92CDB7C5
:10261000DEB780918001815080938001198230C0A3
:102620008981882F90E0880F991FFC01E85CFE4F9C
:1026300040818981882F90E0880F991FFC01E75C19
:10264000FE4F508180918001882F90E0FC01E05A7C
:10265000FE4F8081282F30E08981882F90E0B901DA
:1026600002C0759567958A95E2F7CB01982F917016
:10267000842F652F492F0E94100F89818F5F8983D6
:102680008981843068F280918001883018F087E079
:10269000809380010F90CF91DF910895DF93CF93C6
:1026A000CDB7DEB782E06FEF0E94F21182E060E00A
:1026B0000E94A811CF91DF910895DF93CF9300D0AE
:1026C000CDB7DEB789836A838981882F90E0009730
:1026D00059F48A81882F90E0FC01E859FE4F9081DF
:1026E00082E0692F0E94A8110F900F90CF91DF9187
:1026F0000895DF93CF930F92CDB7DEB78983898199
:10270000882F90E0009721F482E060E00E94A811F9
:102710000F90CF91DF910895DF93CF93CDB7DEB7C0
:1027200084E065E041E00E949A1084E064E041E0CA
:102730000E949A1080E29EE40E942E09CF91DF91C0
:102740000895DF93CF93CDB7DEB728970FB6F894EF
:10275000DEBF0FBECDBF8D836E838E81992787FD2F
:102760009095865A9F4FAA2797FDA095BA2F8983E7
:102770009A83AB83BC8389819A81AB81BC8128EE2B
:1027800033E040E050E0BC01CD010E94F124DC01C7
:10279000CB0124EB30E040E050E0BC01CD010E94D1
:1027A0001025DA01C90189839A83AB83BC838D81AB
:1027B000282F30E038872F838F819885009731F05C
:1027C0002F8138852130310559F013C089819A81D4
:1027D0009C0128513C4F80E0B9010E94910909C039
:1027E00089819A819C0128513C4F81E0B9010E9466
:1027F000910928960FB6F894DEBF0FBECDBFCF91DA
:10280000DF910895DF93CF93CDB7DEB783E061E02A
:1028100041E00E949A1083E060E041E00E949A103B
:102820000E943215CF91DF910895DF93CF93CDB7FA
:10283000DEB76F970FB6F894DEBF0FBECDBF8D8F9A
:102840008D8D282F30E03F8F2E8F8E8D9F8D00979E
:1028500039F02E8D3F8D2130310509F47EC0F9C04D
:1028600083E061E040E00E94100F80E090E0A0E88B
:10287000BFE3898F9A8FAB8FBC8F698D7A8D8B8DDB
:102880009C8D20E030E04AEF54E40E941F02DC01FE
:10289000CB018D8B9E8BAF8BB88F6D897E898F8995
:1028A000988D20E030E040E85FE30E9479038823C0
:1028B0002CF481E090E09C8B8B8B3FC06D897E89EE
:1028C0008F89988D20E03FEF4FE757E40E9419036E
:1028D00018164CF5698D7A8D8B8D9C8D20E030E03B
:1028E00040E251E40E941F02DC01CB01BC01CD019A
:1028F0000E944900DC01CB019C8B8B8B0FC088ECC4
:1029000090E09A8B898B89899A890197F1F79A8B44
:10291000898B8B899C8901979C8B8B8B8B899C895C
:10292000009769F714C06D897E898F89988D0E9400
:102930004900DC01CB019C8B8B8B8B899C89988B0C
:102940008F878F8598890197F1F7988B8F8783E020
:1029500060E041E00E94100F7CC083E060E040E056
:102960000E94100F80E090E0A0E8BFE38B879C8777
:10297000AD87BE876B857C858D859E8520E030E0A8
:102980004AEF54E40E941F02DC01CB018F83988739
:10299000A987BA876F81788589859A8520E030E09C
:1029A00040E85FE30E94790388232CF481E090E003
:1029B0009E838D833FC06F81788589859A8520E0CD
:1029C0003FEF4FE757E40E94190318164CF56B854B
:1029D0007C858D859E8520E030E040E251E40E94B8
:1029E0001F02DC01CB01BC01CD010E944900DC01CA
:1029F000CB019E838D830FC088EC90E09C838B83FA
:102A00008B819C810197F1F79C838B838D819E81C3
:102A100001979E838D838D819E81009769F714C0F5
:102A20006F81788589859A850E944900DC01CB01F8
:102A30009E838D838D819E819A83898389819A81EA
:102A40000197F1F79A83898383E061E041E00E9476
:102A5000100F6F960FB6F894DEBF0FBECDBFCF91AB
:102A6000DF910895DF93CF93CDB7DEB783E061E0C8
:102A700040E00E94100F83E060E040E00E94100FF1
:102A8000CF91DF910895DF93CF9300D00F92CDB710
:102A9000DEB789838981282F30E03B832A838A81AE
:102AA0009B818230910531F12A813B8123303105B0
:102AB00054F48A819B81009789F02A813B812130DF
:102AC000310591F028C08A819B8183309105C1F046
:102AD0002A813B8124303105C9F01DC083E066E0C6
:102AE00041E00E949A1017C083E067E041E00E9435
:102AF0009A1011C083E067E041E00E949A100BC079
:102B000083E063E041E00E949A1005C083E064E046
:102B100041E00E949A100F900F900F90CF91DF919B
:102B20000895DF93CF9300D00F92CDB7DEB789839E
:102B30008981282F30E03B832A838A819B818230E0
:102B4000910531F12A813B812330310554F48A818A
:102B50009B81009789F02A813B812130310591F0DA
:102B600028C08A819B8183309105C1F02A813B81F5
:102B700024303105C9F01DC083E066E041E00E94C9
:102B8000100F17C083E067E041E00E94100F11C0F2
:102B900083E067E041E00E94100F0BC083E063E038
:102BA00041E00E94100F05C083E064E041E00E9414
:102BB000100F0F900F900F90CF91DF910895DF933A
:102BC000CF9300D00F92CDB7DEB789838981282FAC
:102BD00030E03B832A838A819B818230910531F1E9
:102BE0002A813B812330310554F48A819B810097EF
:102BF00089F02A813B812130310591F028C08A81FA
:102C00009B8183309105C1F02A813B8124303105BD
:102C1000C9F01DC083E066E040E00E94100F17C0BD
:102C200083E067E040E00E94100F11C083E067E09E
:102C300040E00E94100F0BC083E063E040E00E9480
:102C4000100F05C083E064E040E00E94100F0F9079
:102C50000F900F90CF91DF910895DF93CF93CDB771
:102C6000DEB7AA970FB6F894DEBF0FBECDBF81E0E6
:102C700061E00E94F21183E062E041E00E949A105C
:102C800083E063E041E00E949A1083E064E041E069
:102C90000E949A1080E090E0A0EFB1E48FA398A783
:102CA000A9A7BAA76FA178A589A59AA520E030E0C9
:102CB0004AEF54E40E941F02DC01CB018BA39CA3CA
:102CC000ADA3BEA36BA17CA18DA19EA120E030E0AD
:102CD00040E85FE30E94790388232CF481E090E0D0
:102CE0009AA389A33FC06BA17CA18DA19EA120E0E6
:102CF0003FEF4FE757E40E94190318164CF56FA1F8
:102D000078A589A59AA520E030E040E251E40E9430
:102D10001F02DC01CB01BC01CD010E944900DC0196
:102D2000CB019AA389A30FC088EC90E098A38F8F62
:102D30008F8D98A10197F1F798A38F8F89A19AA100
:102D400001979AA389A389A19AA1009769F714C052
:102D50006BA17CA18DA19EA10E944900DC01CB0149
:102D60009AA389A389A19AA19E8F8D8F8D8D9E8D07
:102D70000197F1F79E8F8D8F88E30E94BB178DE03E
:102D80000E94BB1780E090E0A0E8BFE3898F9A8F94
:102D9000AB8FBC8F698D7A8D8B8D9C8D20E030E060
:102DA0004AEF54E40E941F02DC01CB018D8B9E8B05
:102DB000AF8BB88F6D897E898F89988D20E030E048
:102DC00040E85FE30E94790388232CF481E090E0DF
:102DD0009C8B8B8B3FC06D897E898F89988D20E07D
:102DE0003FEF4FE757E40E94190318164CF5698D21
:102DF0007A8D8B8D9C8D20E030E040E251E40E9482
:102E00001F02DC01CB01BC01CD010E944900DC01A5
:102E1000CB019C8B8B8B0FC088EC90E09A8B898BBD
:102E200089899A890197F1F79A8B898B8B899C897B
:102E300001979C8B8B8B8B899C89009769F714C0B9
:102E40006D897E898F89988D0E944900DC01CB01B4
:102E50009C8B8B8B8B899C89988B8F878F8598898E
:102E60000197F1F7988B8F8781E00E94BB1780E074
:102E700090E0A0E0B0E48B879C87AD87BE876B8530
:102E80007C858D859E8520E030E04AEF54E40E94E9
:102E90001F02DC01CB018F839887A987BA876F81D6
:102EA000788589859A8520E030E040E85FE30E94DC
:102EB000790388232CF481E090E09E838D833FC0CA
:102EC0006F81788589859A8520E03FEF4FE757E449
:102ED0000E94190318164CF56B857C858D859E859F
:102EE00020E030E040E251E40E941F02DC01CB010F
:102EF000BC01CD010E944900DC01CB019E838D8382
:102F00000FC088EC90E09C838B838B819C81019720
:102F1000F1F79C838B838D819E8101979E838D83A6
:102F20008D819E81009769F714C06F8178858985AE
:102F30009A850E944900DC01CB019E838D838D819F
:102F40009E819A83898389819A810197F1F79A8377
:102F5000898386E00E94BB178EE00E94BB178CE03D
:102F60000E94BB17AA960FB6F894DEBF0FBECDBF66
:102F7000CF91DF910895DF93CF930F92CDB7DEB756
:102F8000898383E062E040E00E94100F83E063E009
:102F900040E00E94100F81E069810E94A8110E9408
:102FA000E5170F90CF91DF910895DF93CF930F92A4
:102FB000CDB7DEB7898389818068898389810E9442
:102FC000BB170F90CF91DF910895DF93CF93CDB7CB
:102FD000DEB76C970FB6F894DEBF0FBECDBF83E0AF
:102FE00064E041E00E94100F80E090E0A0E8BFE3C1
:102FF000898F9A8FAB8FBC8F698D7A8D8B8D9C8DCD
:1030000020E030E04AEF54E40E941F02DC01CB01D3
:103010008D8B9E8BAF8BB88F6D897E898F89988DB4
:1030200020E030E040E85FE30E94790388232CF43D
:1030300081E090E09C8B8B8B3FC06D897E898F896E
:10304000988D20E03FEF4FE757E40E9419031816D0
:103050004CF5698D7A8D8B8D9C8D20E030E040E2BF
:1030600051E40E941F02DC01CB01BC01CD010E9492
:103070004900DC01CB019C8B8B8B0FC088EC90E06E
:103080009A8B898B89899A890197F1F79A8B898B19
:103090008B899C8901979C8B8B8B8B899C89009752
:1030A00069F714C06D897E898F89988D0E944900C7
:1030B000DC01CB019C8B8B8B8B899C89988B8F87B8
:1030C0008F8598890197F1F7988B8F8783E064E06B
:1030D00040E00E94100F80E090E0A0E8BFE38B8703
:1030E0009C87AD87BE876B857C858D859E8520E01E
:1030F00030E04AEF54E40E941F02DC01CB018F83D1
:103100009887A987BA876F81788589859A8520E015
:1031100030E040E85FE30E94790388232CF481E0EB
:1031200090E09E838D833FC06F81788589859A85E5
:1031300020E03FEF4FE757E40E94190318164CF5C3
:103140006B857C858D859E8520E030E040E251E4F2
:103150000E941F02DC01CB01BC01CD010E9449008D
:10316000DC01CB019E838D830FC088EC90E09C83B3
:103170008B838B819C810197F1F79C838B838D815D
:103180009E8101979E838D838D819E81009769F733
:1031900014C06F81788589859A850E944900DC0179
:1031A000CB019E838D838D819E819A8389838981C2
:1031B0009A810197F1F79A8389836C960FB6F894F8
:1031C000DEBF0FBECDBFCF91DF910895DF93CF93C8
:1031D0000F92CDB7DEB7898383E062E041E00E94C1
:1031E000100F83E063E040E00E94100F81E06981EE
:1031F0000E94A8110E94E5170F90CF91DF910895CA
:10320000DF93CF9300D000D0CDB7DEB79C838B8304
:103210001A82198226C089819A8101969A838983AC
:10322000EB81FC8120818B819C8101969C838B8327
:10323000822F0E94E61889819A818031910521F4BC
:1032400080E40E94D5170DC089819A818032910552
:1032500041F481E00E94BB1780E00E94D5171A82DA
:103260001982EB81FC8180818823A9F60F900F9051
:103270000F900F90CF91DF910895DF93CF93CDB74B
:10328000DEB727970FB6F894DEBF0FBECDBF9F8382
:103290008E838E819F819E012F5F3F4FB9014AE04F
:1032A00050E00E947225CE0101960E9400192796D7
:1032B0000FB6F894DEBF0FBECDBFCF91DF9108955A
:1032C000DF93CF9300D0CDB7DEB789836A8389813E
:1032D000813039F48A81803120F48A8181580E94BA
:1032E000D5178981823039F48A81803120F48A812E
:1032F00081540E94D5170F900F90CF91DF910895C0
:10330000DF93CF93CDB7DEB782E060E040E00E946C
:103310009A1082E060E041E00E94100F82E061E0DC
:1033200040E00E949A1082E061E041E00E94100FAC
:1033300082E062E040E00E949A1082E062E041E0B8
:103340000E94100F82E063E040E00E949A1082E049
:1033500063E041E00E94100F82E064E041E00E94DF
:103360009A1082E065E041E00E949A1082E066E0F7
:1033700041E00E949A1082E067E041E00E949A10CA
:10338000CF91DF910895DF93CF9300D00F92CDB707
:10339000DEB71A8260C08A81882F90E0880F991F5B
:1033A000FC01E85BFE4F80819181982F82E0692FBC
:1033B00040E00E94100F198238C08981882F90E068
:1033C000880F991FFC01E05CFE4F80819181982F4E
:1033D00082E0692F0E941E10882321F58981882FA1
:1033E00090E0880F991FFC01E05CFE4F8081918185
:1033F000982F82E0692F0E941E10882379F389811B
:10340000482F50E08A81282F30E0CA01880F991F89
:10341000880F991F820F931FFC01E05BFE4F808194
:103420008B831FC089818F5F89838981843028F2D3
:103430008A81882F90E0880F991FFC01E85BFE4F7E
:1034400080819181982F82E0692F41E00E94100FC6
:103450008A818F5F8A838A81843008F49CCF8FEFC2
:103460008B838B810F900F900F90CF91DF910895F8
:10347000DF93CF93CDB7DEB784E062E040E00E94F7
:103480009A1081E063E00E94770D28E93AE181E03B
:10349000B9010E944F0E81E00E94DF0D0E942508B5
:1034A0000E942309CF91DF910895DF93CF93CDB789
:1034B000DEB78091810190918201CF91DF910895D3
:1034C000DF93CF93CDB7DEB78091830190918401D4
:1034D000CF91DF910895EF92FF920F931F93DF93A7
:1034E000CF93CDB7DEB78091810190918201CC015D
:1034F000A0E0B0E024E630E040E050E0BC01CD01C7
:103500000E94F1247B018C018091830190918401C0
:103510009C0140E050E0C801B7010E941025DA018B
:10352000C901CF91DF911F910F91FF90EF90089506
:10353000DF93CF9300D0CDB7DEB780918501282FE0
:1035400030E03A83298389819A818130910599F00D
:1035500029813A8122303105E1F089819A810097F1
:1035600021F50E94230981E062E00E94770D81E04D
:10357000809385011AC081E063E00E94770D0E946C
:103580001809909382018093810182E080938501E4
:103590000CC081E063E00E94770D0E9418099093AF
:1035A000840180938301109285010F900F90CF9139
:1035B000DF910895DF93CF93CDB7DEB783E060E06E
:1035C00040E00E949A1083E061E040E00E949A107F
:1035D00083E060E040E00E94100F83E061E040E0A3
:1035E0000E94100F80E197E20E94F50BCF91DF91CE
:1035F0000895DF93CF93CDB7DEB727970FB6F89432
:10360000DEBF0FBECDBF8C837E836D8381E08B8355
:103610008D819E81892F99278370880F806A8A8384
:103620008D8189830E94470C8B838B81883019F0B0
:103630008B818F832CC08A8186958A838A8160E002
:103640000E947C0C8B838B81883129F00E94C10CF5
:103650008B818F831CC089810E94A30C8B838B81FB
:10366000883229F00E94C10C8B818F8310C08C811D
:103670000E94A30C8B838B81883229F00E94C10C9D
:103680008B818F8304C00E94C10C8B818F838F81BB
:1036900027960FB6F894DEBF0FBECDBFCF91DF9156
:1036A0000895DF93CF93CDB7DEB727970FB6F89481
:1036B000DEBF0FBECDBF8D837F836E8381E08A83A3
:1036C0008E819F81892F99278370880F806A8983D3
:1036D0001C821B828E818B838D818C838981869550
:1036E0009E012D5F3F4FB90142E00E94060D8A8383
:1036F0008A8127960FB6F894DEBF0FBECDBFCF915B
:10370000DF910895DF93CF93CDB7DEB728970FB63B
:10371000F894DEBF0FBECDBF9D838C837F836E8305
:1037200081E08B838E819F81892F99278370880FF9
:10373000806A8A838E8189830E94470C8A8186955C
:103740008A838A8160E00E947C0C8B838B81883124
:1037500029F00E94C10C8B81888722C089810E9438
:10376000A30C8B838B81883229F00E94C10C8B8142
:10377000888716C00E945E0C8B838B81883019F07D
:103780008B8188870DC08A8161E00E947C0C8B83CD
:103790000E94F00CEC81FD8180830E94C10C188690
:1037A000888528960FB6F894DEBF0FBECDBFCF91A7
:1037B000DF910895DF93CF93CDB7DEB781E063E06B
:1037C00040E00E949A1081E063E041E00E94100F07
:1037D000CF91DF910895DF93CF9300D00F92CDB7B3
:1037E000DEB789838981882F90E08130910569F463
:1037F00081E063E00E941E108B838B81882311F08F
:1038000081E08B838B818A8302C08FEF8A838A81D8
:103810000F900F900F90CF91DF910895DF93CF938A
:103820000F92CDB7DEB789838981882F90E08130F0
:10383000910531F481E063E00E941E108130D1F3E4
:103840000F90CF91DF910895DF93CF93CDB7DEB77F
:103850002C970FB6F894DEBF0FBECDBF80E895E27F
:10386000A0E0B0E08A839B83AC83BD8384E08E8339
:1038700019861C861B861F821A86188688E1898312
:1038800089E290E09E012F5F3F4FB9010E94A3059E
:103890002C960FB6F894DEBF0FBECDBFCF91DF914F
:1038A0000895DF93CF930F92CDB7DEB789838981D7
:1038B0000E949C060F90CF91DF910895DF93CF93E4
:1038C000CDB7DEB70E94B606CF91DF910895DF93A2
:1038D000CF9300D00F92CDB7DEB789838981282F8F
:1038E00030E03B832A838A819B818130910531F0CE
:1038F0002A813B812230310539F00BC084E062E03F
:1039000041E00E949A1005C084E063E041E00E941B
:103910009A100F900F900F90CF91DF910895DF9341
:10392000CF9300D00F92CDB7DEB789838981282F3E
:1039300030E03B832A838A819B818130910531F07D
:103940002A813B812230310539F00BC084E062E0EE
:1039500041E00E94100F05C084E063E041E00E9456
:10396000100F0F900F900F90CF91DF910895DF937C
:10397000CF9300D00F92CDB7DEB789838981282FEE
:1039800030E03B832A838A819B818130910531F02D
:103990002A813B812230310539F00BC084E062E09E
:1039A00040E00E94100F05C084E063E040E00E9408
:1039B000100F0F900F900F90CF91DF910895DF932C
:1039C000CF930F92CDB7DEB710928A011092860185
:1039D00010928701109288011092890180918B01C9
:1039E0008F5F80938B0151C00E945E1C8983898107
:1039F0008D3309F44AC089818D3009F446C08AE2CA
:103A00000E94E61889818053898380918B01282F39
:103A100030E08981B9010E94F91A8981282F30E0AC
:103A200040E050E08091860190918701A09188014B
:103A3000B0918901820F931FA41FB51F8093860147
:103A400090938701A0938801B093890180918601AA
:103A500090918701A0918801B09189012AE030E01E
:103A600040E050E0BC01CD010E94F124DC01CB011B
:103A70008093860190938701A0938801B093890178
:103A800080918B018F5F80938B0189818D3321F031
:103A900089818D3009F0A8CF8091860190918701AE
:103AA000A0918801B09189012AE030E040E050E027
:103AB000BC01CD010E941025DA01C9018093860165
:103AC00090938701A0938801B093890180918B0125
:103AD000282F30E08FEFB9010E94F91A0F90CF9193
:103AE000DF910895DF93CF930F92CDB7DEB7109299
:103AF0008B0110928A011092860110928701109218
:103B000088011092890119822BC00E945E1C80934B
:103B1000B4018091B4018D3319F18091B4018D30DD
:103B2000F9F08091B4010E94E6189091B40180915F
:103B30008B01282F30E0892FB9010E94F91A898161
:103B4000882F90E02091B401FC01E056FE4F2083C5
:103B500080918B018F5F80938B0189818F5F898337
:103B60008091B4018D3321F08091B4018D3069F6DC
:103B70008981882F90E0FC01E056FE4F10828091F1
:103B80008B01282F30E08FEFB9010E94F91A0F90B6
:103B9000CF91DF9108950F931F93DF93CF93CDB70C
:103BA000DEB7CC58D0400FB6F894DEBF0FBECDBF05
:103BB000FE01E958FF4F83E08083FE01EA58FF4F82
:103BC0001082FE01EE58FF4F108211821282138282
:103BD000FE01EF58FF4F10820E942D160E9480199F
:103BE0000E948C130E94DA1A0E94241C81E00E9419
:103BF000671C80E00E94431581E00E94431580E02D
:103C000060E00E94A11381E061E00E94601980E6FB
:103C100090E00E940019FE01E359FF4F80E090E020
:103C2000AAE7B4E480839183A283B3838E0107590A
:103C30001F4FFE01E359FF4F6081718182819381A3
:103C400020E030E04AEF54E40E941F02DC01CB0187
:103C5000F80180839183A283B383FE01E759FF4F6C
:103C6000608171818281938120E030E040E85FE3F0
:103C70000E947903882344F4FE01E959FF4F81E053
:103C800090E09183808364C0FE01E759FF4F60811B
:103C900071818281938120E03FEF4FE757E40E94DA
:103CA000190318160CF043C0FE01E359FF4F608161
:103CB00071818281938120E030E040E251E40E94F2
:103CC0001F02DC01CB018E0109591F4FBC01CD0140
:103CD0000E944900DC01CB01F801918380831FC061
:103CE000FE01EB59FF4F88EC90E091838083FE0149
:103CF000EB59FF4F808191810197F1F7FE01EB595C
:103D0000FF4F91838083DE01A959BF4FFE01E9591E
:103D1000FF4F80819181019711969C938E93FE01B4
:103D2000E959FF4F808191810097D1F627C08E011C
:103D300009591F4FFE01E759FF4F60817181828150
:103D400093810E944900DC01CB01F80191838083BB
:103D5000DE01AD59BF4FFE01E959FF4F80819181CE
:103D60008D939C93FE01ED59FF4F808191810197C6
:103D7000F1F7FE01ED59FF4F9183808381E00E94AE
:103D8000BB1780918B01282F30E08AE891E0B901C0
:103D90000E94821B80918A018F3F09F0A8C18AE6A8
:103DA00090E00E940019FE01E15AFF4F80E090E888
:103DB000ABEBB4E480839183A283B3838E01055A75
:103DC0001F4FFE01E15AFF4F608171818281938113
:103DD00020E030E04AEF54E40E941F02DC01CB01F6
:103DE000F80180839183A283B383FE01E55AFF4FDC
:103DF000608171818281938120E030E040E85FE35F
:103E00000E947903882344F4FE01E75AFF4F81E0C2
:103E100090E09183808364C0FE01E55AFF4F60818A
:103E200071818281938120E03FEF4FE757E40E9448
:103E3000190318160CF043C0FE01E15AFF4F6081D0
:103E400071818281938120E030E040E251E40E9460
:103E50001F02DC01CB018E01075A1F4FBC01CD01AF
:103E60000E944900DC01CB01F801918380831FC0CF
:103E7000FE01E95AFF4F88EC90E091838083FE01B8
:103E8000E95AFF4F808191810197F1F7FE01E95ACC
:103E9000FF4F91838083DE01A75ABF4FFE01E75A8F
:103EA000FF4F80819181019711969C938E93FE0123
:103EB000E75AFF4F808191810097D1F627C08E018C
:103EC000075A1F4FFE01E55AFF4F608171818281C1
:103ED00093810E944900DC01CB01F801918380832A
:103EE000DE01AB5ABF4FFE01E75AFF4F808191813F
:103EF0008D939C93FE01EB5AFF4F80819181019736
:103F0000F1F7FE01EB5AFF4F9183808381E00E941D
:103F1000BB1789E790E00E94001982E061E00E94EF
:103F200060190E94721D81E00E94BB17FE01EF5ACA
:103F3000FF4F80E090E0A8E4B2E480839183A28305
:103F4000B3838E01035B1F4FFE01EF5AFF4F608169
:103F500071818281938120E030E04AEF54E40E9435
:103F60001F02DC01CB01F80180839183A283B3831C
:103F7000FE01E35BFF4F608171818281938120E0CC
:103F800030E040E85FE30E947903882344F4FE01B7
:103F9000E55BFF4F81E090E09183808364C0FE0188
:103FA000E35BFF4F608171818281938120E03FEF6D
:103FB0004FE757E40E94190318160CF043C0FE01A6
:103FC000EF5AFF4F608171818281938120E030E060
:103FD00040E251E40E941F02DC01CB018E01055B2F
:103FE0001F4FBC01CD010E944900DC01CB01F8014B
:103FF000918380831FC0FE01E75BFF4F88EC90E058
:1040000091838083FE01E75BFF4F8081918101975F
:10401000F1F7FE01E75BFF4F91838083DE01A55B33
:10402000BF4FFE01E55BFF4F8081918101971196A3
:104030009C938E93FE01E55BFF4F808191810097F9
:10404000D1F627C08E01055B1F4FFE01E35BFF4FDA
:1040500060817181828193810E944900DC01CB01E2
:10406000F80191838083DE01A95BBF4FFE01E55B10
:10407000FF4F808191818D939C93FE01E95BFF4FFF
:10408000808191810197F1F7FE01E95BFF4F9183F8
:10409000808384E890E00E94001982E061E00E9441
:1040A00060190E94DF1C97C0FE01EF58FF4F80810E
:1040B000882F90E020918A01FC01E056FE4F20837A
:1040C00080918B018F5F80938B0180918B01282FD2
:1040D00030E08AE891E0B9010E94821BDE01AF580E
:1040E000BF4FFE01EF58FF4F80818F5F8C9380910F
:1040F0008A018F3FC9F680918B018F5F80938B017E
:1041000080918B01282F30E08AE891E0B9010E946C
:10411000821B42C080918A01282F30E040E050E0AD
:104120008091860190918701A0918801B0918901C9
:10413000820F931FA41FB51F809386019093870160
:10414000A0938801B09389018091860190918701A5
:10415000A0918801B09189012AE030E040E050E070
:10416000BC01CD010E94F124DC01CB0180938601CA
:1041700090938701A0938801B093890180918B016E
:104180008F5F80938B0180918B01282F30E08AE82C
:1041900091E0B9010E94821B80918A018F3F09F052
:1041A000B9CF8091860190918701A0918801B0914B
:1041B00089012AE030E040E050E0BC01CD010E94DE
:1041C0001025DA01C9018093860190938701A0939D
:1041D0008801B09389011092B401FE01EE58FF4F9F
:1041E0001082118212821382FE01EA58FF4F108260
:1041F000FE01E958FF4F83E08083FE01EF58FF4F37
:10420000108281E00E94BB1783E990E00E940019B0
:1042100082E061E00E94601928C00E945E1C8093C9
:10422000B4018091B4018D3301F18091B4018D30DE
:10423000E1F08091B4010E94E618FE01EF58FF4FB3
:104240008081282F30E04091B401CE0188589F4FE3
:10425000FC01E20FF31F4083DE01AF58BF4FFE01A8
:10426000EF58FF4F80818F5F8C938091B4018D3325
:1042700021F08091B4018D3081F6FE01EF58FF4F9F
:104280008081282F30E0CE0188589F4FFC01E20F3B
:10429000F31F1082CE0188589F4F20EA31E0B90108
:1042A0000E946925009709F01BC381E00E94BB179B
:1042B00084EA90E00E940019ACC11092B40182E03F
:1042C00061E00E94601945C00E945E1C8093B401A9
:1042D0008091B4018D33E9F18091B4018D30C9F141
:1042E0008AE20E94E6188091B401882F90E0C0977E
:1042F0009C01442737FD4095542FBE016E587F4FD7
:10430000FE01EE58FF4F80819181A281B381820F1F
:10431000931FA41FB51FFB0180839183A283B383E6
:104320008E010E581F4FFE01EE58FF4F8081918184
:10433000A281B3812AE030E040E050E0BC01CD0131
:104340000E94F124DC01CB01F80180839183A283D8
:10435000B3838091B4018D3329F08091B4018D3005
:1043600009F0B2CF8E010E581F4FFE01EE58FF4FDD
:1043700080819181A281B3812AE030E040E050E069
:10438000BC01CD010E941025DA01C901F80180832A
:104390009183A283B38381E00E94BB1720918601A1
:1043A000309187014091880150918901FE01EE58BA
:1043B000FF4F80819181A281B38182179307A40767
:1043C000B50709F099C0FE01EA58FF4F81E08083EC
:1043D00084EB90E00E94001980E06AE50E94A1133E
:1043E00081E00E949115FE01ED5BFF4F80E090E0BF
:1043F000AAEFB4E480839183A283B3838E01015C2E
:104400001F4FFE01ED5BFF4F6081718182819381BF
:1044100020E030E04AEF54E40E941F02DC01CB01AF
:10442000F80180839183A283B383FE01FF966081AC
:1044300071818281938120E030E040E85FE30E9457
:10444000790388232CF481E090E09EAF8DAF46C0C5
:10445000FE01FF96608171818281938120E03FEFB0
:104460004FE757E40E941903181664F5FE01ED5B4F
:10447000FF4F608171818281938120E030E040E2D2
:1044800051E40E941F02DC01CB01BC01CD010E945E
:104490004900DC01CB019EAF8DAF0FC088EC90E0EE
:1044A0009CAF8BAF8BAD9CAD0197F1F79CAF8BAF01
:1044B0008DAD9EAD01979EAF8DAF8DAD9EAD00973A
:1044C00069F716C0FE01FF96608171818281938138
:1044D0000E944900DC01CB019EAF8DAF8DAD9EAD3A
:1044E0009AAF89AF89AD9AAD0197F1F79AAF89AFCD
:1044F00081E00E94DF15B4C082EC90E00E940019B8
:10450000FE01E958FF4F8081882309F479C080E0DB
:1045100090E8ABEBB4E48DAB9EABAFABB8AF6DA99D
:104520007EA98FA998AD20E030E04AEF54E40E94C4
:104530001F02DC01CB0189AB9AABABABBCAB69A969
:104540007AA98BA99CA920E030E040E85FE30E94B3
:10455000790388232CF481E090E098AB8FA73FC0CB
:1045600069A97AA98BA99CA920E03FEF4FE757E4FE
:104570000E94190318164CF56DA97EA98FA998AD54
:1045800020E030E040E251E40E941F02DC01CB0158
:10459000BC01CD010E944900DC01CB0198AB8FA783
:1045A0000FC088EC90E09EA78DA78DA59EA50197D2
:1045B000F1F79EA78DA78FA598A9019798AB8FA714
:1045C0008FA598A9009769F714C069A97AA98BA942
:1045D0009CA90E944900DC01CB0198AB8FA78FA555
:1045E00098A99CA78BA78BA59CA50197F1F79CA7E1
:1045F0008BA781E00E94BB1782ED90E00E9400191A
:104600001092B401FE01EE58FF4F10821182128207
:104610001382FE01E958FF4F8081C457DF4F888322
:10462000CC58D040C457DF4FE881CC58D040EE235F
:1046300031F0F1E0C457DF4FF883CC58D040C45775
:10464000DF4F9881CC58D040DE01A958BF4FFE0102
:10465000E958FF4F808181508C93992309F02DCE2A
:10466000FE01EA58FF4F8081882309F4BAC081E037
:104670000E94BB1780E060E00E94A11381E00E94CD
:10468000BB178DED90E00E94001982E061E00E946E
:1046900060198EEE90E00E9400191092B4010E9401
:1046A0005E1C8093B4018091B401813309F090C005
:1046B00081E30E94E61880E090E0AAEFB3E48FA3C4
:1046C00098A7A9A7BAA76FA178A589A59AA520E060
:1046D00030E04AEF54E40E941F02DC01CB018BA3BF
:1046E0009CA3ADA3BEA36BA17CA18DA19EA120E044
:1046F00030E040E85FE30E94790388232CF481E0F6
:1047000090E09AA389A33FC06BA17CA18DA19EA13B
:1047100020E03FEF4FE757E40E94190318164CF5CD
:104720006FA178A589A59AA520E030E040E251E488
:104730000E941F02DC01CB01BC01CD010E94490097
:10474000DC01CB019AA389A30FC088EC90E098A369
:104750008F8F8F8D98A10197F1F798A38F8F89A1E3
:104760009AA101979AA389A389A19AA1009769F7B1
:1047700014C06BA17CA18DA19EA10E944900DC0107
:10478000CB019AA389A389A19AA19E8F8D8F8D8D2C
:104790009E8D0197F1F79E8F8D8F81E00E94BB1750
:1047A0008DEF90E00E94001982E061E00E946019A4
:1047B0000E94721D81E00E94BB178CE091E00E9474
:1047C000001982E061E00E9460190E94DF1C01C1B3
:1047D0008091B401823309F062CF82E30E94E6182F
:1047E000F8C081E00E948F1C80E00E94911580E05B
:1047F00090E8ABE3B5E4898F9A8FAB8FBC8F698D5E
:104800007A8D8B8D9C8D20E030E04AEF54E40E943D
:104810001F02DC01CB018D8B9E8BAF8BB88F6D8916
:104820007E898F89988D20E030E040E85FE30E9428
:10483000790388232CF481E090E09C8B8B8B3FC024
:104840006D897E898F89988D20E03FEF4FE757E48F
:104850000E94190318164CF5698D7A8D8B8D9C8DED
:1048600020E030E040E251E40E941F02DC01CB0175
:10487000BC01CD010E944900DC01CB019C8B8B8BDC
:104880000FC088EC90E09A8B898B89899A8901976F
:10489000F1F79A8B898B8B899C8901979C8B8B8BE9
:1048A0008B899C89009769F714C06D897E898F89EF
:1048B000988D0E944900DC01CB019C8B8B8B8B89EE
:1048C0009C89988B8F878F8598890197F1F7988BB2
:1048D0008F8781E00E94B71C80E00E94DF1579C0BD
:1048E00081E00E94BB178FE191E00E94001980E0F7
:1048F00090E0AAEFB4E48B879C87AD87BE876B8579
:104900007C858D859E8520E030E04AEF54E40E944E
:104910001F02DC01CB018F839887A987BA876F813B
:10492000788589859A8520E030E040E85FE30E9441
:10493000790388232CF481E090E09E838D833FC02F
:104940006F81788589859A8520E03FEF4FE757E4AE
:104950000E94190318164CF56B857C858D859E8504
:1049600020E030E040E251E40E941F02DC01CB0174
:10497000BC01CD010E944900DC01CB019E838D83E7
:104980000FC088EC90E09C838B838B819C81019786
:10499000F1F79C838B838D819E8101979E838D830C
:1049A0008D819E81009769F714C06F817885898514
:1049B0009A850E944900DC01CB019E838D838D8105
:1049C0009E819A83898389819A810197F1F79A83DD
:1049D000898381E00E94BB1780E060E00E94A11300
:1049E000FACB629FD001739FF001829FE00DF11D11
:1049F000649FE00DF11D929FF00D839FF00D749F59
:104A0000F00D659FF00D9927729FB00DE11DF91F04
:104A1000639FB00DE11DF91FBD01CF011124089561
:104A2000A1E21A2EAA1BBB1BFD010DC0AA1FBB1FB2
:104A3000EE1FFF1FA217B307E407F50720F0A21B24
:104A4000B30BE40BF50B661F771F881F991F1A9491
:104A500069F760957095809590959B01AC01BD01BB
:104A6000CF0108952F923F924F925F926F927F9263
:104A70008F929F92AF92BF92CF92DF92EF92FF926E
:104A80000F931F93CF93DF93CDB7DEB7CA1BDB0B1A
:104A90000FB6F894DEBF0FBECDBF09942A883988BF
:104AA00048885F846E847D848C849B84AA84B984C6
:104AB000C884DF80EE80FD800C811B81AA81B981D2
:104AC000CE0FD11D0FB6F894DEBF0FBECDBFED01E6
:104AD0000895FB01DC018D91019080190110D9F33B
:104AE000990B0895FB019F01E8944230C4F04532D0
:104AF000B4F44A3029F497FB1EF4909581959F4FAA
:104B0000642F77270E94A325805D8A330CF0895D8E
:104B10008193CB010097A1F716F45DE251931082C7
:104B2000C9010C949325DC01FC01672F7191772357
:104B3000E1F7329704C07C916D9370836291AE1758
:104B4000BF07C8F30895AA1BBB1B51E107C0AA1FEA
:104B5000BB1FA617B70710F0A61BB70B881F991F1E
:104B60005A95A9F780959095BC01CD010895F894C8
:024B7000FFCF75
:104B72002057656C6C636F6D6500666F72206669A5
:104B82007273742074696D6500456E746572206E6F
:104B9200616D6500456E7465722070617373776F25
:104BA20072640020456E7465722055736572206EC2
:104BB200616D650020456E74657220506173737774
:104BC2006F72640020436F727265637420504153A8
:104BD200530020496E636F727265637420504153B3
:104BE20053002054727920616761696E0020436826
:104BF200616E67652050617373776F726400203154
:104C02002D59206F7220322D4E203A2000456E74AD
:104C12006572206E6577206E616D6500456E746504
:104C220072206E65772070617373776F72640049CA
:104C32006E636F7272656374204E616D6500000071
:104C4200000000000000010103000301030203034E
:104C52000000010002000300040005000600070036
:104C62003738392B3435362D3132332A23303D2F24
:104C720001030206040C08093F065B4F666D7D07BF
:024C82007F6F42
:00000001FF
